:040000001BEF00F002
:1000080001820E0135A10BEF00F00DEF00F019EFA2
:1000180000F0D0AD12EF00F014EF00F017EF00F091
:10002800808618EF00F0809635910192110051EF0B
:1000380000F0868E0E01D251F80B0309D26FD3510E
:10004800F80B0509D36FD083D089D183D18147ECD0
:1000580000F00E01D08F12007F907F9279947E9CE1
:1000680079988096879087928194869C81988896C3
:10007800120030EC00F01DEC00F056EC00F043EFFD
:1000880000F01BEF00F0F30E0E01C617C691C75122
:10009800E00B1B09C76FC68F120001900192000187
:0E00A8003DEF00F00E012B81F28CF28E120063
:020000040020DA
:10000000FF0FFF0FFF0FFF0FFF0FFF0FFF0FFF0F80
:020000040030CA
:0C000000AAFFFFFF9FFFFFFFFFFFFFFFB5
:00000001FF
