:040000002DEF00F0F0
:100008004B820E0133AB0BEF00F00DEF00F014EF55
:1000180000F0010E4A6E1B0ED46E1E0ED36E339B7B
:1000280035A119EF00F01BEF00F02BEF00F0D0AD79
:1000380020EF00F022EF00F027EF00F08086020E9C
:10004800496E2AEF00F08096010E496E35914B9269
:100058001100D4EF07F013C0D9FF14C0DAFFDE2A6D
:10006800000EDD2213C0D9FF14C0DAFF3C0EDE18E3
:10007800DE10D8A442EF00F044EF00F053EF00F098
:1000880013C0D9FF14C0DAFF000EDE6E000EDD6E5D
:1000980011C0D9FF12C0DAFFDE2A000EDD2211C01E
:1000A800D9FF12C0DAFF180EDE18DE10D8A45FEFF1
:1000B80000F061EF00F073EF00F011C0D9FF12C03B
:1000C800DAFF000EDE6E000EDD6E0FC0D9FF10C025
:1000D800DAFFDF2A15C0D9FF16C0DAFFDF2A15C0FC
:1000E800D9FF16C0DAFF080EDE18D8A47EEF00F09C
:1000F80080EF00F086EF00F015C0D9FF16C0DAFFD8
:10010800010EDF6E0FC0D9FF10C0DAFF1D0EDE181A
:10011800D8A491EF00F093EF00F0BDEF00F00DC010
:10012800D9FF0EC0DAFF020EDE18D8A49EEF00F049
:10013800A0EF00F0BDEF00F00BC0D9FF0CC0DAFF54
:10014800DECF06F0DDCF07F0B7EC06F00009D8A443
:10015800B0EF00F0B2EF00F0BDEF00F00FC0D9FF34
:1001680010C0DAFF010EDF6E0DC0D9FF0EC0DAFF36
:10017800DF2A0FC0D9FF10C0DAFF1E0EDE18D8A480
:10018800C8EF00F0CAEF00F0F4EF00F00DC0D9FF9F
:100198000EC0DAFF020EDE18D8A4D5EF00F0D7EFB4
:1001A80000F0F4EF00F00BC0D9FF0CC0DAFFDECF8F
:1001B80006F0DDCF07F0B7EC06F00009D8B4E7EF9A
:1001C80000F0E9EF00F0F4EF00F00FC0D9FF10C025
:1001D800DAFF010EDF6E0DC0D9FF0EC0DAFFDF2A8D
:1001E8000FC0D9FF10C0DAFF1F0EDE18D8A4FFEF2A
:1001F80000F001EF01F040EF01F00DC0D9FF0EC093
:10020800DAFF040EDE18D8B40CEF01F00EEF01F09F
:1002180035EF01F00DC0D9FF0EC0DAFF060EDE186B
:10022800D8B419EF01F01BEF01F035EF01F00DC064
:10023800D9FF0EC0DAFF090EDE18D8B426EF01F098
:1002480028EF01F035EF01F00DC0D9FF0EC0DAFF3D
:100258000B0EDE18D8A433EF01F035EF01F040EFB4
:1002680001F00FC0D9FF10C0DAFF010EDF6E0DC01C
:10027800D9FF0EC0DAFFDF2A0FC0D9FF10C0DAFF9E
:10028800200EDE18D8A44BEF01F04DEF01F0B2EFCD
:1002980001F00DC0D9FF0EC0DAFFDE04D8B457EF65
:1002A80001F059EF01F0A7EF01F00DC0D9FF0EC022
:1002B800DAFF030EDE18D8B464EF01F066EF01F040
:1002C800A7EF01F00DC0D9FF0EC0DAFF050EDE184A
:1002D800D8B471EF01F073EF01F0A7EF01F00DC092
:1002E800D9FF0EC0DAFF070EDE18D8B47EEF01F092
:1002F80080EF01F0A7EF01F00DC0D9FF0EC0DAFFC3
:10030800080EDE18D8B48BEF01F08DEF01F0A7EFDF
:1003180001F00DC0D9FF0EC0DAFF0A0EDE18D8B4FE
:1003280098EF01F09AEF01F0A7EF01F00DC0D9FFA7
:100338000EC0DAFF0C0EDE18D8A4A5EF01F0A7EF67
:1003480001F0B2EF01F00FC0D9FF10C0DAFF010EC3
:10035800DF6E0DC0D9FF0EC0DAFFDF2A0DC0D9FF4E
:100368000EC0DAFF0D0EDE18D8A4BDEF01F0BFEF06
:1003780001F0CCEF01F00DC0D9FF0EC0DAFF010E7D
:10038800DF6E0BC0D9FF0CC0DAFFDE2A000EDD22BB
:100398000DC0D9FF0EC0DAFF030EDE18D8A4D7EFC0
:1003A80001F0D9EF01F00CEF02F00FC0D9FF10C037
:1003B800DAFF180EDF64E3EF01F0E5EF01F00CEF70
:1003C80002F011C0D9FF12C0DAFFDE04DE10D8A493
:1003D800F0EF01F0F2EF01F00CEF02F015C0D9FFD9
:1003E80016C0DAFF070EDE18D8A4FDEF01F0FFEF04
:1003F80001F00CEF02F011C0D9FF12C0DAFFDE2ABB
:10040800000EDD2217C0D9FF18C0DAFF010EDF6E1B
:100418000DC0D9FF0EC0DAFF0A0EDE18D8A417EFF8
:1004280002F019EF02F059EF02F00FC0D9FF10C027
:10043800DAFF180EDF6423EF02F025EF02F059EF20
:1004480002F011C0D9FF12C0DAFF020EDE18DE106A
:10045800D8A431EF02F033EF02F059EF02F015C0E3
:10046800D9FF16C0DAFF070EDE18D8A43EEF02F057
:1004780040EF02F059EF02F017C0D9FF18C0DAFFB9
:10048800DF50D8B44AEF02F04CEF02F059EF02F017
:1004980011C0D9FF12C0DAFFDE06000EDD5A17C000
:1004A800D9FF18C0DAFF000EDF6E120022C0D9FF94
:1004B80023C0DAFFDECF12F0DDCF13F024C0D9FF5E
:1004C80025C0DAFFDECF14F0DDCF15F026C0D9FF46
:1004D80027C0DAFFDECF16F0DDCF17F028C0D9FF2E
:1004E80029C0DAFFDECF18F0DDCF19F0310E1A6E11
:1004F800000E1B6E330E1C6E000E1D6EC7EC04F052
:1005080031C001F032C002F033C003F034C004F04F
:10051800000E066E0C0E056E000E086E000E076EBD
:100528000EEC06F001C035F002C036F036BEA8EF7A
:1005380002F0365007E11F0E355CD8B0A6EF02F086
:10054800A8EF02F0B6EF02F036AEB4EF02F0E20E1A
:10055800355CFF0E3658D8B0B4EF02F0B6EF02F0B3
:10056800C3EF03F035C001F036C002F0000E046E90
:100578003C0E036EB6EC05F02CC0D9FF2DC0DAFF97
:1005880001C0DEFF02C0DDFF35C001F036C002F059
:10059800000E046E3C0E036EB6EC05F024C0D9FFC5
:1005A80025C0DAFF0150DE260250DD2235C001F0F9
:1005B80036C002F0000E046E3C0E036EB6EC05F079
:1005C80028C0D9FF29C0DAFF0150DE260250DD22FB
:1005D8002CC0D9FF2DC0DAFF010EDBBEF8EF02F008
:1005E800F6EF02F007EF03F02AC0D9FF2BC0DAFFBD
:1005F800DE06000EDD5A3C0E2CC0D9FF2DC0DAFFF6
:10060800DE26000EDD2224C0D9FF25C0DAFF010E48
:10061800DBBE19EF03F0010EDB5009E13C0EDE5C96
:10062800D8A019EF03F01BEF03F02CEF03F022C062
:10063800D9FF23C0DAFFDE2A000EDD2224C0D9FF4D
:1006480025C0DAFFC40EDE26FF0EDD2247EF03F0D9
:1006580024C0D9FF25C0DAFF010EDBBE38EF03F056
:1006680036EF03F047EF03F022C0D9FF23C0DAFFCB
:10067800DE06000EDD5A3C0E24C0D9FF25C0DAFF85
:10068800DE26000EDD2228C0D9FF29C0DAFF010EC0
:10069800DBBE59EF03F0010EDB5009E13C0EDE5CD6
:1006A800D8A059EF03F05BEF03F06CEF03F026C01E
:1006B800D9FF27C0DAFFDE2A000EDD2228C0D9FFC5
:1006C80029C0DAFFC40EDE26FF0EDD2287EF03F015
:1006D80028C0D9FF29C0DAFF010EDBBE78EF03F08E
:1006E80076EF03F087EF03F026C0D9FF27C0DAFFC3
:1006F800DE06000EDD5A3C0E28C0D9FF29C0DAFFFD
:10070800DE26000EDD2235C00AF036C00BF0000EE2
:100718000D6E3C0E0C6E54EC05F00C0E0A26000E05
:100728000B222AC0D9FF2BC0DAFF0AC0DEFF0BC09C
:10073800DDFF35C00AF036C00BF0000E0D6E3C0E22
:100748000C6E54EC05F022C0D9FF23C0DAFF0A5022
:10075800DE260B50DD2235C00AF036C00BF0000E45
:100768000D6E3C0E0C6E54EC05F026C0D9FF27C068
:10077800DAFF0A50DE260B50DD2203EF04F022C018
:10078800D9FF23C0DAFF010EDBBED5EF03F0010E5F
:10079800DB5009E10D0EDE5CD8A0D5EF03F0D7EFF2
:1007A80003F003EF04F026C0D9FF27C0DAFF010EDB
:1007B800DBBEEBEF03F0010EDB5007E10C0EDE5C55
:1007C800D8B0E9EF03F0EBEF03F003EF04F02AC031
:1007D800D9FF2BC0DAFF000EDE6E000EDD6E22C0E0
:1007E800D9FF23C0DAFFF40EDE26FF0EDD220C0E41
:1007F80026C0D9FF27C0DAFFDE26000EDD22120050
:10080800070E386EE50E376E0B0E446E050E416E00
:10081800000E486E070E476E000E466E3B0E456E84
:10082800050E396E000E3A6E000E436E070E426ECC
:10083800000E3C6E000E3B6E000E406E110E3F6EB9
:10084800000E3E6E000E3D6EBDEC07F0ADEC07F0FD
:1008580096EC07F0DBEC07F0000E496E4A50D8B46E
:1008680038EF04F03AEF04F05AEF04F0370E0B6E4D
:10087800000E0C6E440E0D6E000E0E6E410E0F6EC5
:10088800000E106E470E116E000E126E450E136E9E
:10089800000E146E390E156E000E166E3A0E176E97
:1008A800000E186E2FEC00F0000E4A6E47C001F0E3
:1008B80048C002F0F6EC06F047C001F048C002F06C
:1008C80045C003F046C004F042C005F043C006F03E
:1008D8002EEC07F04950D8B474EF04F076EF04F02A
:1008E80094EF04F0420E016E000E026E3B0E036E92
:1008F800000E046E3F0E056E000E066E3D0E076E6E
:10090800000E086E470E096E000E0A6E450E0B6E3D
:10091800000E0C6E3AC00DF065EC06F0000E496E44
:100928000C0E47184810D8A49CEF04F09EEF04F072
:1009380032EF04F045504610D8A4A5EF04F0A7EF15
:1009480004F032EF04F0420E226E000E236E3B0ECE
:10095800246E000E256E3F0E266E000E276E3D0E8D
:10096800286E000E296E470E2A6E000E2B6E450E5D
:100978002C6E000E2D6E3AC02EF05AEC02F032EFBB
:1009880004F02DEF00F018C007F019C008F016C0E9
:1009980005F017C006F014C003F015C004F012C02B
:1009A80001F013C002F00EEC06F001C00AF002C01C
:1009B8000BF0000E0D6E020E0C6E54EC05F00AC022
:1009C80020F00BC021F020C00AF021C00BF0000E6F
:1009D8000D6E3C0E0C6E54EC05F012500A261350A6
:1009E8000B221AC0D9FF1BC0DAFF0AC0DEFF0BC0FA
:1009F800DDFF20C001F021C002F0000E046E3C0EA5
:100A0800036EB6EC05F014500126155002221CC0E6
:100A1800D9FF1DC0DAFF01C0DEFF02C0DDFF1CC028
:100A2800D9FF1DC0DAFF010EDBBE25EF05F0010E70
:100A3800DB5009E13C0EDE5CD8A025EF05F027EF7E
:100A480005F038EF05F01AC0D9FF1BC0DAFFDE2A1F
:100A5800000EDD221CC0D9FF1DC0DAFFC40EDE2641
:100A6800FF0EDD2253EF05F01CC0D9FF1DC0DAFFD1
:100A7800010EDBBE44EF05F042EF05F053EF05F041
:100A88001AC0D9FF1BC0DAFFDE06000EDD5A3C0E85
:100A98001CC0D9FF1DC0DAFFDE26000EDD221200C1
:100AA800000E0F6E0DBE5DEF05F05BEF05F063EF16
:100AB80005F00C6C0D1ED8B00D2A010E0F6E0BBE82
:100AC8006AEF05F068EF05F070EF05F00A6C0B1E91
:100AD800D8B00B2A010E0F1A000E116E000E106E00
:100AE8000C500D10D8B47BEF05F07DEF05F0A5EFA5
:100AF80005F0010E0E6E85EF05F0D8900C360D3618
:100B08000E2A0DAE8AEF05F08CEF05F081EF05F0A7
:100B1800D890103611360C500A5C0D500B58D8A0DE
:100B280098EF05F09AEF05F09FEF05F00C500A5E7C
:100B38000D500B5A1080D8900D320C320E2E8CEFBF
:100B480005F00F50D8B4ABEF05F0ADEF05F0B1EFFD
:100B580005F0106C111ED8B0112A10C00AF011C08F
:100B68000BF01200000E066E02BEBFEF05F0BDEFDF
:100B780005F0C5EF05F0016C021ED8B0022A010E7F
:100B8800066E04BECCEF05F0CAEF05F0D0EF05F015
:100B9800036C041ED8B0042A03500410D8B4D7EF4D
:100BA80005F0D9EF05F0FDEF05F0010E056EE1EF58
:100BB80005F0D89003360436052A04AEE6EF05F0B2
:100BC800E8EF05F0DDEF05F00350015C0450025832
:100BD800D8A0F1EF05F0F3EF05F0F7EF05F00350BB
:100BE800015E0450025AD89004320332052EE8EF11
:100BF80005F00650D8B403EF06F005EF06F009EF4C
:100C080006F0016C021ED8B0022A01C001F002C031
:100C180002F012000550015C0250800A096E06506D
:100C2800800A0958D8B01BEF06F01DEF06F037EF21
:100C380006F026EF06F00506D8A006063C0E0726A5
:100C4800000E08220550015C0250800A096E065009
:100C5800800A0958D8A033EF06F035EF06F01FEFE9
:100C680006F05EEF06F00150055C0650800A096E3A
:100C78000250800A0958D8B044EF06F046EF06F053
:100C88005EEF06F04FEF06F00106D8A002063C0E14
:100C98000326000E04220150055C0650800A096EE6
:100CA8000250800A0958D8A05CEF06F05EEF06F003
:100CB80048EF06F00350075C016E04500858026EB6
:100CC80012004904D8A46BEF06F06DEF06F08DEF23
:100CD80006F00D5009C0D9FF0AC0DAFFDECF0EF0CA
:100CE800DDCF0FF00E5E000E0F5A01C0D9FF02C013
:100CF800DAFF0EC0DEFF0FC0DDFF0BC0D9FF0CC04E
:100D0800DAFF03C0E1FF04C0E2FFDECFE6FFDDCF7C
:100D1800E5FF020E4918D8A494EF06F096EF06F006
:100D2800B6EF06F00D5009C0D9FF0AC0DAFFDECFD2
:100D38000EF0DDCF0FF00E5E000E0F5A05C0D9FF82
:100D480006C0DAFF0EC0DEFF0FC0DDFF0BC0D9FF03
:100D58000CC0DAFF07C0E1FF08C0E2FFDECFE6FF04
:100D6800DDCFE5FF1200030E0614086E000E07140F
:100D7800096E08500910D8A4C4EF06F0C6EF06F0B3
:100D8800DDEF06F006C001F007C002F0000E046EA9
:100D9800640E036E64EC07F001500210D8B4D7EF6C
:100DA80006F0D9EF06F0DDEF06F0010E0A6EF4EF5B
:100DB80006F006C001F007C002F0010E046E900EA6
:100DC800036E64EC07F001500210D8A4EEEF06F0B1
:100DD800F0EF06F0F2EF06F0D9EF06F0000E0A6E1B
:100DE8000A50120001A0FBEF06F0FDEF06F000EF3D
:100DF80007F07F8001EF07F07F9001A206EF07F070
:100E080008EF07F00BEF07F07F820CEF07F07F92F7
:100E180001A411EF07F013EF07F016EF07F079843C
:100E280017EF07F0799401A61CEF07F01EEF07F003
:100E380021EF07F07E8C22EF07F07E9C01A827EFB8
:100E480007F029EF07F02CEF07F079882DEF07F06E
:100E58007998120002BE39EF07F0025008E1010448
:100E6800D8A039EF07F03BEF07F04AEF07F002BED2
:100E780049EF07F0025007E1050E015CD8B047EFD3
:100E880007F049EF07F04AEF07F08096050E0118C2
:100E98000210D8A452EF07F054EF07F063EF07F001
:100EA80003500410D8A45BEF07F05DEF07F063EF81
:100EB80007F00E01D0AD02D0808601D080961200D6
:100EC80003500410D8B46BEF07F06DEF07F091EF03
:100ED80007F0010E056E75EF07F0D890033604365B
:100EE800052A04AE7AEF07F07CEF07F071EF07F000
:100EF8000350015C04500258D8A085EF07F087EF33
:100F080007F08BEF07F00350015E0450025AD890A7
:100F180004320332052E7CEF07F001C001F002C055
:100F280002F01200868E0E01D251F80B0309D26F1F
:100F3800D351F80B0509D36FD083D089D183D181E0
:100F4800CAEC07F00E01D08F050EE82EFED700F090
:100F58001200D6501F0B4009D66ED688D650F00B1B
:100F68000E09D66ED5881B0ED46E1E0ED36ED58E86
:100F780012007F907F9279947E9C799880968790D2
:100F880087928194869C819888961200F30E0E01B0
:100F9800C617C691C751E00B1B09C76FC68F120051
:100FA8004A6A496A4B904B92000104EF04F00E0123
:0A0FB800298B2B81F28CF28E1200BF
:020000040020DA
:10000000FF0FFF0FFF0FFF0FFF0FFF0FFF0FFF0F80
:020000040030CA
:0C000000AAFFFFFF9FFFFFFFFFFFFFFFB5
:00000001FF
