:040000002DEF00F0F0
:100008004F820E0133AB0BEF00F00DEF00F014EF51
:1000180000F0010E4E6E1B0ED46E1E0ED36E339B77
:1000280035A119EF00F01BEF00F02BEF00F0D0AD79
:1000380020EF00F022EF00F027EF00F08086010E9D
:100048004D6E2AEF00F0809623EF00F035914F9225
:10005800110079EF08F013C0D9FF14C0DAFFDE2AC7
:10006800000EDD2213C0D9FF14C0DAFF3C0EDE18E3
:10007800DE10D8A442EF00F044EF00F053EF00F098
:1000880013C0D9FF14C0DAFF000EDE6E000EDD6E5D
:1000980011C0D9FF12C0DAFFDE2A000EDD2211C01E
:1000A800D9FF12C0DAFF180EDE18DE10D8A45FEFF1
:1000B80000F061EF00F073EF00F011C0D9FF12C03B
:1000C800DAFF000EDE6E000EDD6E0FC0D9FF10C025
:1000D800DAFFDF2A15C0D9FF16C0DAFFDF2A15C0FC
:1000E800D9FF16C0DAFF080EDE18D8A47EEF00F09C
:1000F80080EF00F086EF00F015C0D9FF16C0DAFFD8
:10010800010EDF6E0FC0D9FF10C0DAFF1D0EDE181A
:10011800D8A491EF00F093EF00F0BDEF00F00DC010
:10012800D9FF0EC0DAFF020EDE18D8A49EEF00F049
:10013800A0EF00F0BDEF00F00BC0D9FF0CC0DAFF54
:10014800DECF06F0DDCF07F062EC07F00009D8A497
:10015800B0EF00F0B2EF00F0BDEF00F00FC0D9FF34
:1001680010C0DAFF010EDF6E0DC0D9FF0EC0DAFF36
:10017800DF2A0FC0D9FF10C0DAFF1E0EDE18D8A480
:10018800C8EF00F0CAEF00F0F4EF00F00DC0D9FF9F
:100198000EC0DAFF020EDE18D8A4D5EF00F0D7EFB4
:1001A80000F0F4EF00F00BC0D9FF0CC0DAFFDECF8F
:1001B80006F0DDCF07F062EC07F00009D8B4E7EFEE
:1001C80000F0E9EF00F0F4EF00F00FC0D9FF10C025
:1001D800DAFF010EDF6E0DC0D9FF0EC0DAFFDF2A8D
:1001E8000FC0D9FF10C0DAFF1F0EDE18D8A4FFEF2A
:1001F80000F001EF01F040EF01F00DC0D9FF0EC093
:10020800DAFF040EDE18D8B40CEF01F00EEF01F09F
:1002180035EF01F00DC0D9FF0EC0DAFF060EDE186B
:10022800D8B419EF01F01BEF01F035EF01F00DC064
:10023800D9FF0EC0DAFF090EDE18D8B426EF01F098
:1002480028EF01F035EF01F00DC0D9FF0EC0DAFF3D
:100258000B0EDE18D8A433EF01F035EF01F040EFB4
:1002680001F00FC0D9FF10C0DAFF010EDF6E0DC01C
:10027800D9FF0EC0DAFFDF2A0FC0D9FF10C0DAFF9E
:10028800200EDE18D8A44BEF01F04DEF01F0B2EFCD
:1002980001F00DC0D9FF0EC0DAFFDE04D8B457EF65
:1002A80001F059EF01F0A7EF01F00DC0D9FF0EC022
:1002B800DAFF030EDE18D8B464EF01F066EF01F040
:1002C800A7EF01F00DC0D9FF0EC0DAFF050EDE184A
:1002D800D8B471EF01F073EF01F0A7EF01F00DC092
:1002E800D9FF0EC0DAFF070EDE18D8B47EEF01F092
:1002F80080EF01F0A7EF01F00DC0D9FF0EC0DAFFC3
:10030800080EDE18D8B48BEF01F08DEF01F0A7EFDF
:1003180001F00DC0D9FF0EC0DAFF0A0EDE18D8B4FE
:1003280098EF01F09AEF01F0A7EF01F00DC0D9FFA7
:100338000EC0DAFF0C0EDE18D8A4A5EF01F0A7EF67
:1003480001F0B2EF01F00FC0D9FF10C0DAFF010EC3
:10035800DF6E0DC0D9FF0EC0DAFFDF2A0DC0D9FF4E
:100368000EC0DAFF0D0EDE18D8A4BDEF01F0BFEF06
:1003780001F0CCEF01F00DC0D9FF0EC0DAFF010E7D
:10038800DF6E0BC0D9FF0CC0DAFFDE2A000EDD22BB
:100398000DC0D9FF0EC0DAFF030EDE18D8A4D7EFC0
:1003A80001F0D9EF01F00CEF02F00FC0D9FF10C037
:1003B800DAFF180EDF64E3EF01F0E5EF01F00CEF70
:1003C80002F011C0D9FF12C0DAFFDE04DE10D8A493
:1003D800F0EF01F0F2EF01F00CEF02F015C0D9FFD9
:1003E80016C0DAFF070EDE18D8A4FDEF01F0FFEF04
:1003F80001F00CEF02F011C0D9FF12C0DAFFDE2ABB
:10040800000EDD2217C0D9FF18C0DAFF010EDF6E1B
:100418000DC0D9FF0EC0DAFF0A0EDE18D8A417EFF8
:1004280002F019EF02F059EF02F00FC0D9FF10C027
:10043800DAFF180EDF6423EF02F025EF02F059EF20
:1004480002F011C0D9FF12C0DAFF020EDE18DE106A
:10045800D8A431EF02F033EF02F059EF02F015C0E3
:10046800D9FF16C0DAFF070EDE18D8A43EEF02F057
:1004780040EF02F059EF02F017C0D9FF18C0DAFFB9
:10048800DF50D8B44AEF02F04CEF02F059EF02F017
:1004980011C0D9FF12C0DAFFDE06000EDD5A17C000
:1004A800D9FF18C0DAFF000EDF6E120024C0D9FF92
:1004B80025C0DAFFDECF12F0DDCF13F026C0D9FF5A
:1004C80027C0DAFFDECF14F0DDCF15F028C0D9FF42
:1004D80029C0DAFFDECF16F0DDCF17F02AC0D9FF2A
:1004E8002BC0DAFFDECF18F0DDCF19F0350E1A6E0B
:1004F800000E1B6E370E1C6E000E1D6EA4EC05F070
:1005080035C001F036C002F037C003F038C004F03F
:10051800000E066E0C0E056E000E086E000E076EBD
:10052800AFEC06F001C039F002C03AF03ABEA8EFCD
:1005380002F03A5007E11F0E395CD8B0A6EF02F07E
:10054800A8EF02F0B6EF02F03AAEB4EF02F0E20E16
:10055800395CFF0E3A58D8B0B4EF02F0B6EF02F0AB
:1005680035EF04F039C001F03AC002F0000E046E15
:100578003C0E036E0AEC07F02EC0D9FF2FC0DAFF3D
:1005880001C0DEFF02C0DDFF26C0D9FF27C0DAFFA9
:10059800DECF31F0DDCF32F039C001F03AC002F0E1
:1005A800000E046E3C0E036E0AEC07F03150012673
:1005B8003250022226C0D9FF27C0DAFF01C0DEFF71
:1005C80002C0DDFF2AC0D9FF2BC0DAFFDECF31F031
:1005D800DDCF32F039C001F03AC002F0000E046EEF
:1005E8003C0E036E0AEC07F031500126325002220D
:1005F8002AC0D9FF2BC0DAFF01C0DEFF02C0DDFF31
:100608002EC0D9FF2FC0DAFF010EDBBE10EF03F0BA
:100618000EEF03F02BEF03F02CC0D9FF2DC0DAFF4B
:10062800DE06000EDD5A2EC0D9FF2FC0DAFFDECF5E
:1006380031F0DDCF32F03C0E3126000E32222EC0D2
:10064800D9FF2FC0DAFF31C0DEFF32C0DDFF26C080
:10065800D9FF27C0DAFF010EDBBE3DEF03F0010E24
:10066800DB5009E13C0EDE5CD8A03DEF03F03FEF24
:1006780003F060EF03F024C0D9FF25C0DAFFDE2ABB
:10068800000EDD22C40E316EFF0E326E26C0D9FF79
:1006980027C0DAFFDECF33F0DDCF34F03150332618
:1006A8003250342226C0D9FF27C0DAFF33C0DEFF1C
:1006B80034C0DDFF87EF03F026C0D9FF27C0DAFF7B
:1006C800010EDBBE6CEF03F06AEF03F087EF03F077
:1006D80024C0D9FF25C0DAFFDE06000EDD5A26C089
:1006E800D9FF27C0DAFFDECF31F0DDCF32F03C0E84
:1006F8003126000E322226C0D9FF27C0DAFF31C0CA
:10070800DEFF32C0DDFF2AC0D9FF2BC0DAFF010EA1
:10071800DBBE99EF03F0010EDB5009E13C0EDE5C15
:10072800D8A099EF03F09BEF03F0BCEF03F028C0CB
:10073800D9FF29C0DAFFDE2A000EDD22C40E316E91
:10074800FF0E326E2AC0D9FF2BC0DAFFDECF33F09E
:10075800DDCF34F031503326325034222AC0D9FF4D
:100768002BC0DAFF33C0DEFF34C0DDFFE3EF03F058
:100778002AC0D9FF2BC0DAFF010EDBBEC8EF03F099
:10078800C6EF03F0E3EF03F028C0D9FF29C0DAFF72
:10079800DE06000EDD5A2AC0D9FF2BC0DAFFDECFF5
:1007A80031F0DDCF32F03C0E3126000E32222AC065
:1007B800D9FF2BC0DAFF31C0DEFF32C0DDFF39C000
:1007C8000AF03AC00BF0000E0D6E3C0E0C6E4DECAC
:1007D80006F00C0E0A26000E0B222CC0D9FF2DC0E5
:1007E800DAFF0AC0DEFF0BC0DDFF24C0D9FF25C039
:1007F800DAFFDECF31F0DDCF32F039C00AF03AC08F
:100808000BF0000E0D6E3C0E0C6E4DEC06F03150E8
:100818000A2632500B2224C0D9FF25C0DAFF0AC0AD
:10082800DEFF0BC0DDFF28C0D9FF29C0DAFFDECF0D
:1008380031F0DDCF32F039C00AF03AC00BF0000ECB
:100848000D6E3C0E0C6E4DEC06F031500A263250FF
:100858000B2228C0D9FF29C0DAFF0AC0DEFF0BC06F
:10086800DDFF1200070E3C6EE50E3B6E0B0E486E68
:10087800020E436E000E4C6E0C0E4B6E000E4A6E4E
:10088800000E496E020E3D6E000E3E6E000E406E6A
:10089800070E3F6E000E456E000E446E000E426E4F
:1008A800110E416E000E476E000E466E62EC08F0A7
:1008B80052EC08F03FEC08F080EC08F04E50D8B449
:1008C80068EF04F06AEF04F08AEF04F03B0E0B6E59
:1008D800000E0C6E480E0D6E000E0E6E430E0F6E5F
:1008E800000E106E4B0E116E000E126E490E136E36
:1008F800000E146E3D0E156E000E166E3E0E176E2F
:10090800000E186E2FEC00F0000E4E6E4BC001F07A
:100918004CC002F0A1EC07F04BC001F04CC002F053
:1009280049C003F04AC004F0D9EC07F04D50D8B4E0
:10093800A0EF04F0A2EF04F0C0EF04F03F0E016E48
:10094800000E026E440E036E000E046E410E056E1C
:10095800000E066E460E076E000E086E4B0E096EF0
:10096800000E0A6E490E0B6E000E0C6E3EC00DF0A6
:10097800F3EC04F0000E4D6E0C0E4B184C10D8A47E
:10098800C8EF04F0CAEF04F062EF04F049504A10CF
:10099800D8A4D1EF04F0D3EF04F062EF04F03F0ED7
:1009A800246E000E256E440E266E000E276E410E34
:1009B800286E000E296E460E2A6E000E2B6E4B0E08
:1009C8002C6E000E2D6E490E2E6E000E2F6E3EC040
:1009D80030F05AEC02F062EF04F02DEF00F009C09D
:1009E800D9FF0AC0DAFF010EDBBE07EF05F0010EE2
:1009F800DB5007E10C0EDE5CD8B005EF05F007EF21
:100A080005F056EF05F080B60CEF05F00EEF05F097
:100A180056EF05F00D50D8B414EF05F016EF05F0B9
:100A28003CEF05F0FF0E0E6EFF0E0F6E09C0D9FFEA
:100A38000AC0DAFFDECF10F0DDCF11F00E5010261D
:100A48000F50112201C0D9FF02C0DAFF10C0DEFF2B
:100A580011C0DDFF0BC0D9FF0CC0DAFF03C0E1FFF6
:100A680004C0E2FFDECFE6FFDDCFE5FFA3EF05F030
:100A780009C0D9FF0AC0DAFF01C0E1FF02C0E2FFE6
:100A8800DECFE6FFDDCFE5FF0BC0D9FF0CC0DAFFF4
:100A980003C0E1FF04C0E2FFDECFE6FFDDCFE5FFE4
:100AA800A3EF05F080A65BEF05F05DEF05F0A3EF7F
:100AB80005F00D50D8B463EF05F065EF05F08BEF46
:100AC80005F0FF0E0E6EFF0E0F6E09C0D9FF0AC0AB
:100AD800DAFFDECF10F0DDCF11F00E5010260F50E8
:100AE800112205C0D9FF06C0DAFF10C0DEFF11C011
:100AF800DDFF0BC0D9FF0CC0DAFF07C0E1FF08C05B
:100B0800E2FFDECFE6FFDDCFE5FFA3EF05F009C08A
:100B1800D9FF0AC0DAFF05C0E1FF06C0E2FFDECF59
:100B2800E6FFDDCFE5FF0BC0D9FF0CC0DAFF07C039
:100B3800E1FF08C0E2FFDECFE6FFDDCFE5FF1200F0
:100B480018C007F019C008F016C005F017C006F065
:100B580014C003F015C004F012C001F013C002F075
:100B6800AFEC06F001C00AF002C00BF0000E0D6EEB
:100B7800020E0C6E4DEC06F00AC022F00BC023F0FA
:100B880022C00AF023C00BF0000E0D6E3C0E0C6E56
:100B98004DEC06F012500A2613500B221AC0D9FF4A
:100BA8001BC0DAFF0AC0DEFF0BC0DDFF22C001F068
:100BB80023C002F0000E046E3C0E036E0AEC07F030
:100BC80014500126155002221CC0D9FF1DC0DAFF9F
:100BD80001C0DEFF02C0DDFF1CC0D9FF1DC0DAFF67
:100BE800010EDBBE02EF06F0010EDB5009E13C0E00
:100BF800DE5CD8A002EF06F004EF06F025EF06F061
:100C08001AC0D9FF1BC0DAFFDE2A000EDD22C40E8F
:100C18001E6EFF0E1F6E1CC0D9FF1DC0DAFFDECF8F
:100C280020F0DDCF21F01E5020261F5021221CC0AD
:100C3800D9FF1DC0DAFF20C0DEFF21C0DDFF4CEF69
:100C480006F01CC0D9FF1DC0DAFF010EDBBE31EF74
:100C580006F02FEF06F04CEF06F01AC0D9FF1BC0C4
:100C6800DAFFDE06000EDD5A1CC0D9FF1DC0DAFF10
:100C7800DECF1EF0DDCF1FF03C0E1E26000E1F2219
:100C88001CC0D9FF1DC0DAFF1EC0DEFF1FC0DDFF7C
:100C98001200000E0F6E0DBE56EF06F054EF06F070
:100CA8005CEF06F00C6C0D1ED8B00D2A010E0F6E0D
:100CB8000BBE63EF06F061EF06F069EF06F00A6C11
:100CC8000B1ED8B00B2A010E0F1A000E116E000E63
:100CD800106E0C500D10D8B474EF06F076EF06F0D5
:100CE8009EEF06F0010E0E6E7EEF06F0D8900C36E1
:100CF8000D360E2A0DAE83EF06F085EF06F07AEF7B
:100D080006F0D890103611360C500A5C0D500B586E
:100D1800D8A091EF06F093EF06F098EF06F00C508C
:100D28000A5E0D500B5A1080D8900D320C320E2EE0
:100D380085EF06F00F50D8B4A4EF06F0A6EF06F042
:100D4800AAEF06F0106C111ED8B0112A10C00AF0D4
:100D580011C00BF012000550015C0250800A096EA8
:100D68000650800A0958D8B0BCEF06F0BEEF06F06E
:100D7800DAEF06F0C9EF06F00506D8A006063C0E25
:100D88000724076E000E0820086E0550015C02500B
:100D9800800A096E0650800A0958D8A0D6EF06F0D6
:100DA800D8EF06F0C0EF06F003EF07F00150055C3E
:100DB8000650800A096E0250800A0958D8B0E7EF39
:100DC80006F0E9EF06F003EF07F0F4EF06F001068E
:100DD800D8A002063C0E0324036E000E0420046E05
:100DE8000150055C0650800A096E0250800A0958B5
:100DF800D8A001EF07F003EF07F0EBEF06F0035080
:100E0800075C016E04500858026E1200000E066E50
:100E180002BE13EF07F011EF07F019EF07F0016CAE
:100E2800021ED8B0022A010E066E04BE20EF07F09B
:100E38001EEF07F024EF07F0036C041ED8B0042A55
:100E480003500410D8B42BEF07F02DEF07F051EF43
:100E580007F0010E056E35EF07F0D890033604361B
:100E6800052A04AE3AEF07F03CEF07F031EF07F040
:100E78000350015C04500258D8A045EF07F047EF33
:100E880007F04BEF07F00350015E0450025AD89068
:100E980004320332052E3CEF07F00650D8B457EF62
:100EA80007F059EF07F05DEF07F0016C021ED8B0AC
:100EB800022A01C001F002C002F01200030E06145B
:100EC800086E000E0714096E08500910D8A46FEFB9
:100ED80007F071EF07F088EF07F006C001F007C0D0
:100EE80002F0000E046E640E036E0DEC08F0015063
:100EF8000210D8B482EF07F084EF07F088EF07F00C
:100F0800010E0A6E9FEF07F006C001F007C002F05D
:100F1800010E046E900E036E0DEC08F001500210E5
:100F2800D8A499EF07F09BEF07F09DEF07F084EF47
:100F380007F0000E0A6E0A50120001A0A6EF07F093
:100F4800A8EF07F0ABEF07F07F80ACEF07F07F90DA
:100F580001A2B1EF07F0B3EF07F0B6EF07F07F8219
:100F6800B7EF07F07F9201A4BCEF07F0BEEF07F0E0
:100F7800C1EF07F07984C2EF07F0799401A6C7EFB3
:100F880007F0C9EF07F0CCEF07F07E8CCDEF07F044
:100F98007E9C01A8D2EF07F0D4EF07F0D7EF07F057
:100FA8007988D8EF07F07998120002BEE4EF07F0CD
:100FB800025008E10104D8A0E4EF07F0E6EF07F0DB
:100FC800F7EF07F002BEF4EF07F0025007E1050E55
:100FD800015CD8B0F2EF07F0F4EF07F0F7EF07F095
:100FE8000E01D09F8096050E01180210D8A4FFEFBD
:100FF80007F001EF08F00CEF08F003500410D8A434
:1010080008EF08F00AEF08F00CEF08F00E01D08F97
:10101800120003500410D8B414EF08F016EF08F0CB
:101028003AEF08F0010E056E1EEF08F0D89003366F
:101038000436052A04AE23EF08F025EF08F01AEF6E
:1010480008F00350015C04500258D8A02EEF08F0B5
:1010580030EF08F034EF08F00350015E0450025AF4
:10106800D89004320332052E25EF08F001C001F0B4
:1010780002C002F01200868E0E01D251F80B03094D
:10108800D26FD351F80B0509D36FD083D089D183A0
:10109800D1816FEC08F00E01D08F1200D6501F0BD3
:1010A8004009D66ED688D650F00B0209D66ED58880
:1010B8001B0ED46E1E0ED36ED58E12007F907F92BB
:1010C80079947E9C79988096879087928194869C63
:1010D800819888961200F30E0E01C617C691C75163
:1010E800E00B1B09C76FC68F12004E6A4D6A4F90FE
:1010F8004F92000136EF04F00E01298B2B81F28C00
:04110800F28E120051
:020000040020DA
:10000000FF0FFF0FFF0FFF0FFF0FFF0FFF0FFF0F80
:020000040030CA
:0C000000AAFFFFFF9FFFFFFFFFFFFFFFB5
:00000001FF
