:0400000028EF00F0F5
:1000080019820E0133AB0BEF00F00DEF00F013EF88
:1000180000F079861B0ED46E1E0ED36E339B35A16D
:1000280018EF00F01AEF00F026EF00F0D0AD1FEF48
:1000380000F021EF00F024EF00F0808625EF00F0BB
:100048008096359119921100F0EF02F006C0D9FFA1
:1000580007C0DAFFDECF10F0DDCF11F0030E101667
:10006800000E111610501110D8A43DEF00F03FEF0C
:1000780000F05AEF00F006C0D9FF07C0DAFFDECF64
:1000880001F0DDCF02F0000E046E640E036E54EC36
:1000980002F001500210D8B454EF00F056EF00F00F
:1000A8005AEF00F0010E126E75EF00F006C0D9FF8E
:1000B80007C0DAFFDECF01F0DDCF02F0010E046EDB
:1000C800900E036E54EC02F001500210D8A46FEFAA
:1000D80000F071EF00F073EF00F056EF00F0000E43
:1000E800126E79A67AEF00F07CEF00F082EF00F054
:1000F8000EC0D9FF0FC0DAFFDF2A79960EC0D9FFEC
:100108000FC0DAFF3C0EDE18D8A48DEF00F08FEF99
:1001180000F09AEF00F00EC0D9FF0FC0DAFF000E12
:10012800DF6E0CC0D9FF0DC0DAFFDF2A0CC0D9FF83
:100138000DC0DAFF180EDE18D8A4A5EF00F0A7EF5F
:1001480000F0B2EF00F00CC0D9FF0DC0DAFF000ECE
:10015800DF6E0AC0D9FF0BC0DAFFDF2A0AC0D9FF59
:100168000BC0DAFF1D0EDE18D8A4BDEF00F0BFEFFC
:1001780000F0DFEF00F008C0D9FF09C0DAFF020E77
:10018800DE18D8A4CAEF00F0CCEF00F0DFEF00F0E3
:100198001250D8A4D2EF00F0D4EF00F0DFEF00F057
:1001A8000AC0D9FF0BC0DAFF010EDF6E08C0D9FF05
:1001B80009C0DAFFDF2A0AC0D9FF0BC0DAFF1E0E1A
:1001C800DE18D8A4EAEF00F0ECEF00F00CEF01F035
:1001D80008C0D9FF09C0DAFF020EDE18D8A4F7EF6D
:1001E80000F0F9EF00F00CEF01F01250D8B4FFEF77
:1001F80000F001EF01F00CEF01F00AC0D9FF0BC0CD
:10020800DAFF010EDF6E08C0D9FF09C0DAFFDF2A66
:100218000AC0D9FF0BC0DAFF1F0EDE18D8A417EFEB
:1002280001F019EF01F058EF01F008C0D9FF09C03B
:10023800DAFF040EDE18D8B424EF01F026EF01F03F
:100248004DEF01F008C0D9FF09C0DAFF060EDE182D
:10025800D8B431EF01F033EF01F04DEF01F008C0F1
:10026800D9FF09C0DAFF090EDE18D8B43EEF01F055
:1002780040EF01F04DEF01F008C0D9FF09C0DAFFE7
:100288000B0EDE18D8A44BEF01F04DEF01F058EF3C
:1002980001F00AC0D9FF0BC0DAFF010EDF6E08C0FB
:1002A800D9FF09C0DAFFDF2A0AC0D9FF0BC0DAFF7D
:1002B800200EDE18D8A463EF01F065EF01F0CAEF55
:1002C80001F008C0D9FF09C0DAFFDE04D8B46FEF27
:1002D80001F071EF01F0BFEF01F008C0D9FF09C0CC
:1002E800DAFF030EDE18D8B47CEF01F07EEF01F0E0
:1002F800BFEF01F008C0D9FF09C0DAFF050EDE180C
:10030800D8B489EF01F08BEF01F0BFEF01F008C01E
:10031800D9FF09C0DAFF070EDE18D8B496EF01F04E
:1003280098EF01F0BFEF01F008C0D9FF09C0DAFF6C
:10033800080EDE18D8B4A3EF01F0A5EF01F0BFEF67
:1003480001F008C0D9FF09C0DAFF0A0EDE18D8B4D8
:10035800B0EF01F0B2EF01F0BFEF01F008C0D9FF34
:1003680009C0DAFF0C0EDE18D8A4BDEF01F0BFEF0C
:1003780001F0CAEF01F00AC0D9FF0BC0DAFF010E85
:10038800DF6E08C0D9FF09C0DAFFDF2A08C0D9FF2D
:1003980009C0DAFF0D0EDE18D8A4D5EF01F0D7EFAB
:1003A80001F0E4EF01F008C0D9FF09C0DAFF010E3F
:1003B800DF6E06C0D9FF07C0DAFFDE2A000EDD2295
:1003C8001200016E01A0EBEF01F0EDEF01F0F0EF8C
:1003D80001F07F80F1EF01F07F9001A2F6EF01F0CC
:1003E800F8EF01F0FBEF01F07F82FCEF01F07F9264
:1003F80001A401EF02F003EF02F006EF02F07984A6
:1004080007EF02F0799401A60CEF02F00EEF02F06C
:1004180011EF02F07E8C12EF02F07E9C01A817EF1C
:1004280002F019EF02F01CEF02F079881DEF02F0DC
:1004380079981200070E146EE50E136E0B0E186EE7
:10044800010E176E040E166E3B0E156ED3EC02F0FD
:10045800C1EC02F0AEEC02F0EAEC02F0130E066E0C
:10046800000E076E180E086E000E096E170E0A6E43
:10047800000E0B6E160E0C6E000E0D6E150E0E6E27
:10048800000E0F6E2AEC00F01650E5EC01F015C0D6
:1004980001F0165086EC02F032EF02F028EF00F07F
:1004A80003500410D8B45BEF02F05DEF02F081EF67
:1004B80002F0010E056E65EF02F0D890033604369F
:1004C800052A04AE6AEF02F06CEF02F061EF02F069
:1004D8000350015C04500258D8A075EF02F077EF82
:1004E80002F07BEF02F00350015E0450025AD890EC
:1004F80004320332052E6CEF02F001C001F002C095
:1005080002F01200026E0250D8B48DEF02F08FEFA5
:1005180002F09AEF02F0050E026095EF02F097EFF5
:1005280002F09AEF02F00E01D09F8096050E021895
:10053800D8A4A1EF02F0A3EF02F0ADEF02F0015052
:10054800D8A4A9EF02F0ABEF02F0ADEF02F00E0174
:10055800D08F1200868E0E01D251F80B0309D26F8C
:10056800D351F80B0509D36FD083D089D183D181BA
:10057800E0EC02F00E01D08F1200D6501F0B40099C
:10058800D66ED688D650F00B0E09D66ED5881B0EBF
:10059800D46E1E0ED36ED58E7996819612007F90FA
:1005A8007F9279947E9C799880968790879281949F
:1005B800869C819888961200F30E0E01C617C69184
:1005C800C751E00B1B09C76FC68F12000E01298B9C
:1005D8002B81F28CF28E12001990199200011EEFF5
:0205E80002F01F
:020000040020DA
:10000000FF0FFF0FFF0FFF0FFF0FFF0FFF0FFF0F80
:020000040030CA
:0C000000AAFFFFFF9FFFFFFFFFFFFFFFB5
:00000001FF
