:0400000028EF00F0F5
:1000080022820E0133AB0BEF00F00DEF00F013EF7F
:1000180000F079861B0ED46E1E0ED36E339B35A16D
:1000280018EF00F01AEF00F026EF00F0D0AD1FEF48
:1000380000F021EF00F024EF00F0808625EF00F0BB
:100048008096359122921100A3EF03F079A62FEF45
:1000580000F031EF00F037EF00F013C0D9FF14C003
:10006800DAFFDF2A799613C0D9FF14C0DAFF3C0EF5
:10007800DE18D8A442EF00F044EF00F04FEF00F094
:1000880013C0D9FF14C0DAFF000EDF6E11C0D9FF0C
:1000980012C0DAFFDF2A11C0D9FF12C0DAFF180E2A
:1000A800DE18D8A45AEF00F05CEF00F06CEF00F017
:1000B80011C0D9FF12C0DAFF000EDF6E0FC0D9FFE2
:1000C80010C0DAFFDF2A15C0D9FF16C0DAFFDF2A11
:1000D80015C0D9FF16C0DAFF080EDE18D8A477EFCE
:1000E80000F079EF00F07FEF00F015C0D9FF16C0DF
:1000F800DAFF010EDF6E0FC0D9FF10C0DAFF1D0E48
:10010800DE18D8A48AEF00F08CEF00F0B6EF00F00C
:100118000DC0D9FF0EC0DAFF020EDE18D8A497EF83
:1001280000F099EF00F0B6EF00F00BC0D9FF0CC05B
:10013800DAFFDECF06F0DDCF07F08FEC02F0000922
:10014800D8A4A9EF00F0ABEF00F0B6EF00F00FC0B5
:10015800D9FF10C0DAFF010EDF6E0DC0D9FF0EC047
:10016800DAFFDF2A0FC0D9FF10C0DAFF1E0EDE1833
:10017800D8A4C1EF00F0C3EF00F0EDEF00F00DC020
:10018800D9FF0EC0DAFF020EDE18D8A4CEEF00F0B9
:10019800D0EF00F0EDEF00F00BC0D9FF0CC0DAFF94
:1001A800DECF06F0DDCF07F08FEC02F00009D8B4FF
:1001B800E0EF00F0E2EF00F0EDEF00F00FC0D9FF44
:1001C80010C0DAFF010EDF6E0DC0D9FF0EC0DAFFD6
:1001D800DF2A0FC0D9FF10C0DAFF1F0EDE18D8A41F
:1001E800F8EF00F0FAEF00F039EF01F00DC0D9FF99
:1001F8000EC0DAFF040EDE18D8B405EF01F007EFE1
:1002080001F02EEF01F00DC0D9FF0EC0DAFF060E87
:10021800DE18D8B412EF01F014EF01F02EEF01F060
:100228000DC0D9FF0EC0DAFF090EDE18D8B41FEFD3
:1002380001F021EF01F02EEF01F00DC0D9FF0EC043
:10024800DAFF0B0EDE18D8A42CEF01F02EEF01F028
:1002580039EF01F00FC0D9FF10C0DAFF010EDF6ED1
:100268000DC0D9FF0EC0DAFFDF2A0FC0D9FF10C0BA
:10027800DAFF200EDE18D8A444EF01F046EF01F0B3
:10028800ABEF01F00DC0D9FF0EC0DAFFDE04D8B421
:1002980050EF01F052EF01F0A0EF01F00DC0D9FFCF
:1002A8000EC0DAFF030EDE18D8B45DEF01F05FEF81
:1002B80001F0A0EF01F00DC0D9FF0EC0DAFF050E66
:1002C800DE18D8B46AEF01F06CEF01F0A0EF01F08E
:1002D8000DC0D9FF0EC0DAFF070EDE18D8B477EFCD
:1002E80001F079EF01F0A0EF01F00DC0D9FF0EC0C9
:1002F800DAFF080EDE18D8B484EF01F086EF01F0BB
:10030800A0EF01F00DC0D9FF0EC0DAFF0A0EDE180B
:10031800D8B491EF01F093EF01F0A0EF01F00DC018
:10032800D9FF0EC0DAFF0C0EDE18D8A49EEF01F03C
:10033800A0EF01F0ABEF01F00FC0D9FF10C0DAFF5A
:10034800010EDF6E0DC0D9FF0EC0DAFFDF2A0DC027
:10035800D9FF0EC0DAFF0D0EDE18D8A4B6EF01F0F3
:10036800B8EF01F0C5EF01F00DC0D9FF0EC0DAFFFC
:10037800010EDF6E0BC0D9FF0CC0DAFFDE2A000EBB
:10038800DD220DC0D9FF0EC0DAFF030EDE18D8A497
:10039800D0EF01F0D2EF01F002EF02F00FC0D9FF69
:1003A80010C0DAFF180EDF64DCEF01F0DEEF01F0B9
:1003B80002EF02F011C0D9FF12C0DAFFDE04D8A4A0
:1003C800E8EF01F0EAEF01F002EF02F015C0D9FF03
:1003D80016C0DAFF070EDE18D8A4F5EF01F0F7EF24
:1003E80001F002EF02F011C0D9FF12C0DAFFDF2AD4
:1003F80017C0D9FF18C0DAFF010EDF6E0DC0D9FF94
:100408000EC0DAFF0A0EDE18D8A40DEF02F00FEFC7
:1004180002F04CEF02F00FC0D9FF10C0DAFF180E3F
:10042800DF6419EF02F01BEF02F04CEF02F011C08D
:10043800D9FF12C0DAFF020EDE18D8A426EF02F0A8
:1004480028EF02F04CEF02F015C0D9FF16C0DAFF12
:10045800070EDE18D8A433EF02F035EF02F04CEFA8
:1004680002F017C0D9FF18C0DAFFDF50D8B43FEF49
:1004780002F041EF02F04CEF02F011C0D9FF12C0B8
:10048800DAFFDF0617C0D9FF18C0DAFF000EDF6EEB
:100498001200070E1B6EE50E1A6E0B0E216E010E72
:1004A8001F6E140E206E000E1E6E010E1D6E000EC5
:1004B8001C6E86EC03F074EC03F061EC03F09DEC29
:1004C80003F01A0E0B6E000E0C6E210E0D6E000E50
:1004D8000E6E1F0E0F6E000E106E200E116E000EA7
:1004E800126E1E0E136E000E146E1D0E156E000E8B
:1004F800166E1C0E176E000E186E2AEC00F02050B7
:10050800CEEC02F01EC001F0205039EC03F065EF8C
:1005180002F028EF00F0030E0614086E000E071410
:10052800096E08500910D8A49CEF02F09EEF02F063
:10053800B5EF02F006C001F007C002F0000E046E2D
:10054800640E036E07EC03F001500210D8B4AFEF4D
:1005580002F0B1EF02F0B5EF02F0010E0A6ECCEF37
:1005680002F006C001F007C002F0010E046E900E02
:10057800036E07EC03F001500210D8A4C6EF02F096
:10058800C8EF02F0CAEF02F0B1EF02F0000E0A6EF7
:100598000A501200016E01A0D4EF02F0D6EF02F06B
:1005A800D9EF02F07F80DAEF02F07F9001A2DFEF4F
:1005B80002F0E1EF02F0E4EF02F07F82E5EF02F0F3
:1005C8007F9201A4EAEF02F0ECEF02F0EFEF02F005
:1005D8007984F0EF02F0799401A6F5EF02F0F7EFD5
:1005E80002F0FAEF02F07E8CFBEF02F07E9C01A88D
:1005F80000EF03F002EF03F005EF03F0798806EF50
:1006080003F07998120003500410D8B40EEF03F0E9
:1006180010EF03F034EF03F0010E056E18EF03F04E
:10062800D89003360436052A04AE1DEF03F01FEFF9
:1006380003F014EF03F00350015C04500258D8A0F3
:1006480028EF03F02AEF03F02EEF03F00350015ECA
:100658000450025AD89004320332052E1FEF03F0DB
:1006680001C001F002C002F01200026E0250D8B4BC
:1006780040EF03F042EF03F04DEF03F0050E026088
:1006880048EF03F04AEF03F04DEF03F00E01D09F5F
:100698008096050E0218D8A454EF03F056EF03F025
:1006A80060EF03F00150D8A45CEF03F05EEF03F0B5
:1006B80060EF03F00E01D08F1200868E0E01D2512A
:1006C800F80B0309D26FD351F80B0509D36FD08308
:1006D800D089D183D18193EC03F00E01D08F120021
:1006E800D6501F0B4009D66ED688D650F00B0E098F
:1006F800D66ED5881B0ED46E1E0ED36ED58E799607
:10070800819612007F907F9279947E9C799880964A
:10071800879087928194869C819888961200F30E20
:100728000E01C617C691C751E00B1B09C76FC68FCC
:1007380012000E01298B2B81F28CF28E120022906E
:08074800229200014DEF02F0C6
:020000040020DA
:10000000FF0FFF0FFF0FFF0FFF0FFF0FFF0FFF0F80
:020000040030CA
:0C000000AAFFFFFF9FFFFFFFFFFFFFFFB5
:00000001FF
