:040000002DEF00F0F0
:100008004F820E0133AB0BEF00F00DEF00F014EF51
:1000180000F0010E4E6E1B0ED46E1E0ED36E339B77
:1000280035A119EF00F01BEF00F02BEF00F0D0AD79
:1000380020EF00F022EF00F027EF00F08086010E9D
:100048004D6E2AEF00F0809623EF00F035914F9225
:10005800110075EF08F03050D8B435EF00F037EFE5
:1000680000F067EF00F0FF0E316EFF0E326E24C015
:10007800D9FF25C0DAFFDECF33F0DDCF34F03150C1
:1000880033263250342224C0D9FF25C0DAFF33C0CA
:10009800DEFF34C0DDFFFF0E316EFF0E326E28C06A
:1000A800D9FF29C0DAFFDECF33F0DDCF34F031508D
:1000B80033263250342228C0D9FF29C0DAFF33C092
:1000C800DEFF34C0DDFF24C0D9FF25C0DAFFDECF54
:1000D80012F0DDCF13F026C0D9FF27C0DAFFDECF3C
:1000E80014F0DDCF15F028C0D9FF29C0DAFFDECF24
:1000F80016F0DDCF17F02AC0D9FF2BC0DAFFDECF0C
:1001080018F0DDCF19F0350E1A6E000E1B6E370E83
:100118001C6E000E1D6E59EC05F03050D8B497EFE8
:1001280000F099EF00F0C1EF00F024C0D9FF25C01E
:10013800DAFFDECF31F0DDCF32F0010E3126000ECE
:10014800322224C0D9FF25C0DAFF31C0DEFF32C019
:10015800DDFF28C0D9FF29C0DAFFDECF31F0DDCFBF
:1001680032F0010E3126000E322228C0D9FF29C0F4
:10017800DAFF31C0DEFF32C0DDFF35C001F036C026
:1001880002F037C003F038C004F0000E066E0C0E03
:10019800056E000E086E000E076E64EC06F001C0D6
:1001A80039F002C03AF03ABEE5EF00F03A5007E104
:1001B8001F0E395CD8B0E3EF00F0E5EF00F0F3EF85
:1001C80000F03AAEF1EF00F0E20E395CFF0E3A585B
:1001D800D8B0F1EF00F0F3EF00F072EF02F039C0A1
:1001E80001F03AC002F0000E046E3C0E036EBFEC44
:1001F80006F02EC0D9FF2FC0DAFF01C0DEFF02C013
:10020800DDFF26C0D9FF27C0DAFFDECF31F0DDCF12
:1002180032F039C001F03AC002F0000E046E3C0E14
:10022800036EBFEC06F0315001263250022226C080
:10023800D9FF27C0DAFF01C0DEFF02C0DDFF2AC0F8
:10024800D9FF2BC0DAFFDECF31F0DDCF32F039C075
:1002580001F03AC002F0000E046E3C0E036EBFECD3
:1002680006F031500126325002222AC0D9FF2BC095
:10027800DAFF01C0DEFF02C0DDFF2EC0D9FF2FC0AC
:10028800DAFF010EDBBE4DEF01F04BEF01F068EF36
:1002980001F02CC0D9FF2DC0DAFFDE06000EDD5AB2
:1002A8002EC0D9FF2FC0DAFFDECF31F0DDCF32F01C
:1002B8003C0E3126000E32222EC0D9FF2FC0DAFFA5
:1002C80031C0DEFF32C0DDFF26C0D9FF27C0DAFF0C
:1002D800010EDBBE7AEF01F0010EDB5009E13C0EA6
:1002E800DE5CD8A07AEF01F07CEF01F09DEF01F021
:1002F80024C0D9FF25C0DAFFDE2A000EDD22C40E95
:10030800316EFF0E326E26C0D9FF27C0DAFFDECF6E
:1003180033F0DDCF34F0315033263250342226C04A
:10032800D9FF27C0DAFF33C0DEFF34C0DDFFC4EFDA
:1003380001F026C0D9FF27C0DAFF010EDBBEA9EF06
:1003480001F0A7EF01F0C4EF01F024C0D9FF25C0E8
:10035800DAFFDE06000EDD5A26C0D9FF27C0DAFF15
:10036800DECF31F0DDCF32F03C0E3126000E3222E6
:1003780026C0D9FF27C0DAFF31C0DEFF32C0DDFF5B
:100388002AC0D9FF2BC0DAFF010EDBBED6EF01F081
:10039800010EDB5009E13C0EDE5CD8A0D6EF01F07F
:1003A800D8EF01F0F9EF01F028C0D9FF29C0DAFF32
:1003B800DE2A000EDD22C40E316EFF0E326E2AC018
:1003C800D9FF2BC0DAFFDECF33F0DDCF34F0315068
:1003D8003326325034222AC0D9FF2BC0DAFF33C06B
:1003E800DEFF34C0DDFF20EF02F02AC0D9FF2BC0AA
:1003F800DAFF010EDBBE05EF02F003EF02F020EF9B
:1004080002F028C0D9FF29C0DAFFDE06000EDD5A47
:100418002AC0D9FF2BC0DAFFDECF31F0DDCF32F0B2
:100428003C0E3126000E32222AC0D9FF2BC0DAFF3B
:1004380031C0DEFF32C0DDFF39C00AF03AC00BF030
:10044800000E0D6E3C0E0C6E02EC06F00C0E0A2629
:10045800000E0B222CC0D9FF2DC0DAFF0AC0DEFF28
:100468000BC0DDFF24C0D9FF25C0DAFFDECF31F095
:10047800DDCF32F039C00AF03AC00BF0000E0D6E35
:100488003C0E0C6E02EC06F031500A2632500B225C
:1004980024C0D9FF25C0DAFF0AC0DEFF0BC0DDFF8C
:1004A80028C0D9FF29C0DAFFDECF31F0DDCF32F026
:1004B80039C00AF03AC00BF0000E0D6E3C0E0C6EFF
:1004C80002EC06F031500A2632500B2228C0D9FF20
:1004D80029C0DAFF0AC0DEFF0BC0DDFF120013C01F
:1004E800D9FF14C0DAFFDE2A000EDD2213C0D9FFBF
:1004F80014C0DAFF3C0EDE18DE10D8A486EF02F036
:1005080088EF02F097EF02F013C0D9FF14C0DAFFAA
:10051800000EDE6E000EDD6E11C0D9FF12C0DAFFCC
:10052800DE2A000EDD2211C0D9FF12C0DAFF180E34
:10053800DE18DE10D8A4A3EF02F0A5EF02F0B7EFA3
:1005480002F011C0D9FF12C0DAFF000EDE6E000EF5
:10055800DD6E0FC0D9FF10C0DAFFDF2A15C0D9FF42
:1005680016C0DAFFDF2A15C0D9FF16C0DAFF080E59
:10057800DE18D8A4C2EF02F0C4EF02F0CAEF02F00E
:1005880015C0D9FF16C0DAFF010EDF6E0FC0D9FF04
:1005980010C0DAFF1D0EDE18D8A4D5EF02F0D7EF91
:1005A80002F001EF03F00DC0D9FF0EC0DAFF020E12
:1005B800DE18D8A4E2EF02F0E4EF02F001EF03F056
:1005C8000BC0D9FF0CC0DAFFDECF06F0DDCF07F095
:1005D8005EEC07F00009D8A4F4EF02F0F6EF02F0A1
:1005E80001EF03F00FC0D9FF10C0DAFF010EDF6E74
:1005F8000DC0D9FF0EC0DAFFDF2A0FC0D9FF10C027
:10060800DAFF1E0EDE18D8A40CEF03F00EEF03F08D
:1006180038EF03F00DC0D9FF0EC0DAFF020EDE1866
:10062800D8A419EF03F01BEF03F038EF03F00BC069
:10063800D9FF0CC0DAFFDECF06F0DDCF07F05EECA5
:1006480007F00009D8B42BEF03F02DEF03F038EFD3
:1006580003F00FC0D9FF10C0DAFF010EDF6E0DC026
:10066800D9FF0EC0DAFFDF2A0FC0D9FF10C0DAFFAA
:100678001F0EDE18D8A443EF03F045EF03F084EF14
:1006880003F00DC0D9FF0EC0DAFF040EDE18D8B48F
:1006980050EF03F052EF03F079EF03F00DC0D9FFEC
:1006A8000EC0DAFF060EDE18D8B45DEF03F05FEF78
:1006B80003F079EF03F00DC0D9FF0EC0DAFF090E81
:1006C800DE18D8B46AEF03F06CEF03F079EF03F0AB
:1006D8000DC0D9FF0EC0DAFF0B0EDE18D8A477EFD5
:1006E80003F079EF03F084EF03F00FC0D9FF10C0D7
:1006F800DAFF010EDF6E0DC0D9FF0EC0DAFFDF2A68
:100708000FC0D9FF10C0DAFF200EDE18D8A48FEF73
:1007180003F091EF03F0F6EF03F00DC0D9FF0EC020
:10072800DAFFDE04D8B49BEF03F09DEF03F0EBEFA4
:1007380003F00DC0D9FF0EC0DAFF030EDE18D8B4DF
:10074800A8EF03F0AAEF03F0EBEF03F00DC0D9FF19
:100758000EC0DAFF050EDE18D8B4B5EF03F0B7EF18
:1007680003F0EBEF03F00DC0D9FF0EC0DAFF070E60
:10077800DE18D8B4C2EF03F0C4EF03F0EBEF03F0D8
:100788000DC0D9FF0EC0DAFF080EDE18D8B4CFEFBF
:1007980003F0D1EF03F0EBEF03F00DC0D9FF0EC06B
:1007A800DAFF0A0EDE18D8B4DCEF03F0DEEF03F050
:1007B800EBEF03F00DC0D9FF0EC0DAFF0C0EDE1808
:1007C800D8A4E9EF03F0EBEF03F0F6EF03F00FC066
:1007D800D9FF10C0DAFF010EDF6E0DC0D9FF0EC0C1
:1007E800DAFFDF2A0DC0D9FF0EC0DAFF0D0EDE18C2
:1007F800D8A401EF04F003EF04F010EF04F00DC0EB
:10080800D9FF0EC0DAFF010EDF6E0BC0D9FF0CC096
:10081800DAFFDE2A000EDD220DC0D9FF0EC0DAFF96
:10082800030EDE18D8A41BEF04F01DEF04F050EF00
:1008380004F00FC0D9FF10C0DAFF180EDF6427EFED
:1008480004F029EF04F050EF04F011C0D9FF12C0F2
:10085800DAFFDE04DE10D8A434EF04F036EF04F03B
:1008680050EF04F015C0D9FF16C0DAFF070EDE18E6
:10087800D8A441EF04F043EF04F050EF04F011C0A6
:10088800D9FF12C0DAFFDE2A000EDD2217C0D9FF19
:1008980018C0DAFF010EDF6E0DC0D9FF0EC0DAFFF7
:1008A8000A0EDE18D8A45BEF04F05DEF04F09DEFAC
:1008B80004F00FC0D9FF10C0DAFF180EDF6467EF2D
:1008C80004F069EF04F09DEF04F011C0D9FF12C0E5
:1008D800DAFF020EDE18DE10D8A475EF04F077EF09
:1008E80004F09DEF04F015C0D9FF16C0DAFF070E1B
:1008F800DE18D8A482EF04F084EF04F09DEF04F032
:1009080017C0D9FF18C0DAFFDF50D8B48EEF04F053
:1009180090EF04F09DEF04F011C0D9FF12C0DAFF88
:10092800DE06000EDD5A17C0D9FF18C0DAFF000E28
:10093800DF6E1200070E3C6EE50E3B6E0B0E486E26
:10094800020E3F6E000E4C6E0C0E4B6E000E4A6E81
:10095800000E496E020E3D6E000E3E6E000E456E94
:10096800070E446E000E416E000E406E000E476E7C
:10097800110E466E000E436E000E426E5EEC08F0DD
:100988004EEC08F03BEC08F07CEC08F04E50D8B484
:10099800D0EF04F0D2EF04F0F2EF04F03B0E0B6E50
:1009A800000E0C6E480E0D6E000E0E6E3F0E0F6E92
:1009B800000E106E4B0E116E000E126E490E136E65
:1009C800000E146E3D0E156E000E166E3E0E176E5E
:1009D800000E186E73EC02F0000E4E6E4BC001F064
:1009E8004CC002F09DEC07F04BC001F04CC002F087
:1009F80049C003F04AC004F0D5EC07F04D50D8B414
:100A080008EF05F00AEF05F026EF05F0440E016E39
:100A1800000E026E400E036E000E046E460E056E4A
:100A2800000E066E420E076E000E086E4B0E096E23
:100A3800000E0A6E490E0B6E000E0C6E17EC07F0D6
:100A4800000E4D6E0C0E4B184C10D8A42EEF05F06E
:100A580030EF05F0CAEF04F049504A10D8A437EF38
:100A680005F039EF05F0CAEF04F0440E246E000ECD
:100A7800256E400E266E000E276E460E286E000E5E
:100A8800296E420E2A6E000E2B6E4B0E2C6E000E37
:100A98002D6E490E2E6E000E2F6E3EC030F02FECDC
:100AA80000F0CAEF04F02DEF00F018C007F019C0ED
:100AB80008F016C005F017C006F014C003F015C002
:100AC80004F012C001F013C002F064EC06F001C09B
:100AD8000AF002C00BF0000E0D6E020E0C6E02EC56
:100AE80006F00AC022F00BC023F022C00AF023C08F
:100AF8000BF0000E0D6E3C0E0C6E02EC06F0125060
:100B08000A2613500B221AC0D9FF1BC0DAFF0AC0ED
:100B1800DEFF0BC0DDFF22C001F023C002F0000E93
:100B2800046E3C0E036EBFEC06F0145001261550FF
:100B380002221CC0D9FF1DC0DAFF01C0DEFF02C0BF
:100B4800DDFF1CC0D9FF1DC0DAFF010EDBBEB7EF09
:100B580005F0010EDB5009E13C0EDE5CD8A0B7EFD2
:100B680005F0B9EF05F0DAEF05F01AC0D9FF1BC0A0
:100B7800DAFFDE2A000EDD22C40E1E6EFF0E1F6E87
:100B88001CC0D9FF1DC0DAFFDECF20F0DDCF21F079
:100B98001E5020261F5021221CC0D9FF1DC0DAFF7D
:100BA80020C0DEFF21C0DDFF01EF06F01CC0D9FF29
:100BB8001DC0DAFF010EDBBEE6EF05F0E4EF05F03D
:100BC80001EF06F01AC0D9FF1BC0DAFFDE06000EDF
:100BD800DD5A1CC0D9FF1DC0DAFFDECF1EF0DDCF05
:100BE8001FF03C0E1E26000E1F221CC0D9FF1DC080
:100BF800DAFF1EC0DEFF1FC0DDFF1200000E0F6E01
:100C08000DBE0BEF06F009EF06F011EF06F00C6CC5
:100C18000D1ED8B00D2A010E0F6E0BBE18EF06F090
:100C280016EF06F01EEF06F00A6C0B1ED8B00B2A62
:100C3800010E0F1A000E116E000E106E0C500D10E2
:100C4800D8B429EF06F02BEF06F053EF06F0010EAB
:100C58000E6E33EF06F0D8900C360D360E2A0DAE18
:100C680038EF06F03AEF06F02FEF06F0D89010367E
:100C780011360C500A5C0D500B58D8A046EF06F000
:100C880048EF06F04DEF06F00C500A5E0D500B5A77
:100C98001080D8900D320C320E2E3AEF06F00F501D
:100CA800D8B459EF06F05BEF06F05FEF06F0106C72
:100CB800111ED8B0112A10C00AF011C00BF0120092
:100CC8000550015C0250800A096E0650800A0958D6
:100CD800D8B071EF06F073EF06F08FEF06F07EEFF5
:100CE80006F00506D8A006063C0E0724076E000E7F
:100CF8000820086E0550015C0250800A096E0650F3
:100D0800800A0958D8A08BEF06F08DEF06F075EF32
:100D180006F0B8EF06F00150055C0650800A096E2F
:100D28000250800A0958D8B09CEF06F09EEF06F0F2
:100D3800B8EF06F0A9EF06F00106D8A002063C0EAF
:100D48000324036E000E0420046E0150055C065057
:100D5800800A096E0250800A0958D8A0B6EF06F03A
:100D6800B8EF06F0A0EF06F00350075C016E0450E0
:100D78000858026E1200000E066E02BEC8EF06F09A
:100D8800C6EF06F0CEEF06F0016C021ED8B0022ABC
:100D9800010E066E04BED5EF06F0D3EF06F0D9EFCC
:100DA80006F0036C041ED8B0042A03500410D8B40B
:100DB800E0EF06F0E2EF06F006EF07F0010E056E31
:100DC800EAEF06F0D89003360436052A04AEEFEFB2
:100DD80006F0F1EF06F0E6EF06F00350015C045070
:100DE8000258D8A0FAEF06F0FCEF06F000EF07F083
:100DF8000350015E0450025AD89004320332052E83
:100E0800F1EF06F00650D8B40CEF07F00EEF07F03C
:100E180012EF07F0016C021ED8B0022A01C001F0DF
:100E280002C002F0120009C0D9FF0AC0DAFF010EA1
:100E3800DBBE2BEF07F0010EDB5007E10C0EDE5C8A
:100E4800D8B029EF07F02BEF07F045EF07F009C0FE
:100E5800D9FF0AC0DAFF01C0E1FF02C0E2FFDECF1E
:100E6800E6FFDDCFE5FF0BC0D9FF0CC0DAFF03C0FA
:100E7800E1FF04C0E2FFDECFE6FFDDCFE5FF5DEF77
:100E880007F009C0D9FF0AC0DAFF05C0E1FF06C0B4
:100E9800E2FFDECFE6FFDDCFE5FF0BC0D9FF0CC0D8
:100EA800DAFF07C0E1FF08C0E2FFDECFE6FFDDCFD3
:100EB800E5FF1200030E0614086E000E0714096EF3
:100EC80008500910D8A46BEF07F06DEF07F084EF16
:100ED80007F006C001F007C002F0000E046E640EB1
:100EE800036E09EC08F001500210D8B47EEF07F049
:100EF80080EF07F084EF07F0010E0A6E9BEF07F012
:100F080006C001F007C002F0010E046E900E036ED9
:100F180009EC08F001500210D8A495EF07F097EFFC
:100F280007F099EF07F080EF07F0000E0A6E0A50FD
:100F3800120001A0A2EF07F0A4EF07F0A7EF07F057
:100F48007F80A8EF07F07F9001A2ADEF07F0AFEF29
:100F580007F0B2EF07F07F82B3EF07F07F9201A4AA
:100F6800B8EF07F0BAEF07F0BDEF07F07984BEEFEE
:100F780007F0799401A6C3EF07F0C5EF07F0C8EFB3
:100F880007F07E8CC9EF07F07E9C01A8CEEF07F032
:100F9800D0EF07F0D3EF07F07988D4EF07F079980E
:100FA800120002BEE0EF07F0025008E10104D8A0E9
:100FB800E0EF07F0E2EF07F0F3EF07F002BEF0EF23
:100FC80007F0025007E1050E015CD8B0EEEF07F01C
:100FD800F0EF07F0F3EF07F00E01D09F8096050EB3
:100FE80001180210D8A4FBEF07F0FDEF07F008EF97
:100FF80008F003500410D8A404EF08F006EF08F036
:1010080008EF08F00E01D08F120003500410D8B476
:1010180010EF08F012EF08F036EF08F0010E056E39
:101028001AEF08F0D89003360436052A04AE1FEFED
:1010380008F021EF08F016EF08F00350015C0450A7
:101048000258D8A02AEF08F02CEF08F030EF08F08B
:101058000350015E0450025AD89004320332052E20
:1010680021EF08F001C001F002C002F01200868EE4
:101078000E01D251F80B0309D26FD351F80B0509B1
:10108800D36FD083D089D183D1816BEC08F00E0166
:10109800D08F1200D6501F0B4009D66ED688D65076
:1010A800F00B0E09D66ED5881B0ED46E1E0ED36EAD
:1010B800D58E12007F907F9279947E9C7998809645
:1010C800879087928194869C819888961200F30E67
:1010D8000E01C617C691C751E00B1B09C76FC68F13
:1010E80012004E6A4D6A4F904F9200019EEF04F035
:0C10F8000E01298B2B81F28CF28E12006D
:020000040020DA
:10000000FF0FFF0FFF0FFF0FFF0FFF0FFF0FFF0F80
:020000040030CA
:0C000000AAFFFFFF9FFFFFFFFFFFFFFFB5
:00000001FF
