:0400000032EF00F0EB
:100008005E820E0133AB0BEF00F00DEF00F016EF40
:1000180000F0010E0001C66F1B0ED46E1D0ED36ECC
:100028000E01339B35A11BEF00F01DEF00F030EF00
:1000380000F0D0AD22EF00F024EF00F02AEF00F03E
:100048008086020E0001C56F2EEF00F08096010E2B
:100058000001C56F0E0135915E9211005CEF17F03B
:100E000000253032643A2530326420253032643A8D
:100E10002530326420256420256400253032642F7B
:100E2000253032642F256420253032643A25303253
:030E30006400005B
:100E340013C0D9FF14C0DAFFDE2A000EDD2213C06E
:100E4400D9FF14C0DAFF3C0EDE18DE10D8A42DEF53
:100E540007F02FEF07F03EEF07F013C0D9FF14C0DF
:100E6400DAFF000EDE6E000EDD6E11C0D9FF12C077
:100E7400DAFFDE2A000EDD2211C0D9FF12C0DAFF2C
:100E8400180EDE18DE10D8A44AEF07F04CEF07F076
:100E94005EEF07F011C0D9FF12C0DAFF000EDE6E5C
:100EA400000EDD6E0FC0D9FF10C0DAFFDF2A15C0B7
:100EB400D9FF16C0DAFFDF2A15C0D9FF16C0DAFF42
:100EC400080EDE18D8A469EF07F06BEF07F071EF96
:100ED40007F015C0D9FF16C0DAFF010EDF6E0FC090
:100EE400D9FF10C0DAFF1D0EDE18D8A47CEF07F07E
:100EF4007EEF07F0A8EF07F00DC0D9FF0EC0DAFFB0
:100F0400020EDE18D8A489EF07F08BEF07F0A8EFE4
:100F140007F00BC0D9FF0CC0DAFFDECF06F0DDCF3F
:100F240007F0B2EC14F00009D8A49BEF07F09DEF92
:100F340007F0A8EF07F00FC0D9FF10C0DAFF010EC9
:100F4400DF6E0DC0D9FF0EC0DAFFDF2A0FC0D9FF54
:100F540010C0DAFF1E0EDE18D8A4B3EF07F0B5EF09
:100F640007F0DFEF07F00DC0D9FF0EC0DAFF020E65
:100F7400DE18D8A4C0EF07F0C2EF07F0DFEF07F0E8
:100F84000BC0D9FF0CC0DAFFDECF06F0DDCF07F0CF
:100F9400B2EC14F00009D8B4D2EF07F0D4EF07F0A4
:100FA400DFEF07F00FC0D9FF10C0DAFF010EDF6ECC
:100FB4000DC0D9FF0EC0DAFFDF2A0FC0D9FF10C061
:100FC400DAFF1F0EDE18D8A4EAEF07F0ECEF07F003
:100FD4002BEF08F00DC0D9FF0EC0DAFF040EDE18A7
:100FE400D8B4F7EF07F0F9EF07F020EF08F00DC0E1
:100FF400D9FF0EC0DAFF060EDE18D8B404EF08F0ED
:1010040006EF08F020EF08F00DC0D9FF0EC0DAFF9C
:10101400090EDE18D8B411EF08F013EF08F020EF32
:1010240008F00DC0D9FF0EC0DAFF0B0EDE18D8A4ED
:101034001EEF08F020EF08F02BEF08F00FC0D9FFE7
:1010440010C0DAFF010EDF6E0DC0D9FF0EC0DAFF4B
:10105400DF2A0FC0D9FF10C0DAFF200EDE18D8A493
:1010640036EF08F038EF08F09DEF08F00DC0D9FF17
:101074000EC0DAFFDE04D8B442EF08F044EF08F003
:1010840092EF08F00DC0D9FF0EC0DAFF030EDE1890
:10109400D8B44FEF08F051EF08F092EF08F00DC00C
:1010A400D9FF0EC0DAFF050EDE18D8B45CEF08F0E5
:1010B4005EEF08F092EF08F00DC0D9FF0EC0DAFF22
:1010C400070EDE18D8B469EF08F06BEF08F092EF62
:1010D40008F00DC0D9FF0EC0DAFF080EDE18D8B430
:1010E40076EF08F078EF08F092EF08F00DC0D9FF22
:1010F4000EC0DAFF0A0EDE18D8B483EF08F085EFCD
:1011040008F092EF08F00DC0D9FF0EC0DAFF0C0E04
:10111400DE18D8A490EF08F092EF08F09DEF08F0E5
:101124000FC0D9FF10C0DAFF010EDF6E0DC0D9FF6A
:101134000EC0DAFFDF2A0DC0D9FF0EC0DAFF0D0E94
:10114400DE18D8A4A8EF08F0AAEF08F0B7EF08F06B
:101154000DC0D9FF0EC0DAFF010EDF6E0BC0D9FF40
:101164000CC0DAFFDE2A000EDD220DC0D9FF0EC04E
:10117400DAFF030EDE18D8A4C2EF08F0C4EF08F0BB
:10118400F7EF08F00FC0D9FF10C0DAFF180EDF64C4
:10119400CEEF08F0D0EF08F0F7EF08F011C0D9FF58
:1011A40012C0DAFFDE04DE10D8A4DBEF08F0DDEFB6
:1011B40008F0F7EF08F015C0D9FF16C0DAFF070EE4
:1011C400DE18D8A4E8EF08F0EAEF08F0F7EF08F02B
:1011D40011C0D9FF12C0DAFFDE2A000EDD2217C0CB
:1011E400D9FF18C0DAFF010EDF6E0DC0D9FF0EC0A3
:1011F400DAFF0A0EDE18D8A402EF09F004EF09F0B2
:1012040044EF09F00FC0D9FF10C0DAFF180EDF64F5
:101214000EEF09F010EF09F044EF09F011C0D9FF07
:1012240012C0DAFF020EDE18DE10D8A41CEF09F09B
:101234001EEF09F044EF09F015C0D9FF16C0DAFF1C
:10124400070EDE18D8A429EF09F02BEF09F044EFBC
:1012540009F017C0D9FF18C0DAFFDF50D8B435EF52
:1012640009F037EF09F044EF09F011C0D9FF12C0BB
:10127400DAFFDE06000EDD5A17C0D9FF18C0DAFF08
:10128400000EDF6E120042C0D9FF43C0DAFFDECF8A
:10129400F6FFDDCFF7FF000EF86E0800F550250AC3
:1012A400D8A457EF09F059EF09F0F2EF0AF042C061
:1012B400D9FF43C0DAFFDE2A000EDD22000E000152
:1012C400C06F000EBF6FBFC0C3F0C0C0C4F0C1691F
:1012D400C269000E536E000E526EBEEF09F000019B
:1012E400C38142C0D9FF43C0DAFFDE2A000EDD22EB
:1012F400BEEF09F00001C38373EF09F00001C38559
:1013040073EF09F00001C38773EF09F00001C3898B
:1013140073EF09F0000E536E010E526EBEEF09F02A
:1013240042C0D9FF43C0DAFFDECFF6FFDDCFF7FFBF
:10133400000EF86E0800F550466E476A4750000AE2
:10134400D8B4A7EF09F08CEF09F04650200AD8B4BE
:1013540084EF09F0030AD8B488EF09F0080AD8B476
:1013640080EF09F0060AD8B471EF09F01D0AD8B469
:101374007CEF09F08CEF09F052505310D8B4C5EF4C
:1013840009F0C7EF09F092EF09F00001C3A1CDEF16
:1013940009F0CFEF09F0D0EF09F0C39342C0D9FFB1
:1013A40043C0DAFFDECFF6FFDDCFF7FF000EF86EA5
:1013B4000800F5502A0AD8A4E2EF09F0E4EF09F096
:1013C4000DEF0AF042C0D9FF43C0DAFFDE2A000E57
:1013D400DD2244C0D9FF45C0DAFFDFCF46F0020E5C
:1013E400DE26DFCF47F0000EDD2246C0D9FF47C01E
:1013F400DAFFDECFBFF0DDCFC0F0C0BF06EF0AF0EA
:1014040004EF0AF052EF0AF0C381BF6DC01FD8B0D9
:10141400C02B52EF0AF042C0D9FF43C0DAFFDECF3F
:1014240008F0DDCF09F01CEC0FF008C0BFF009C0D4
:10143400C0F024EF0AF042C0D9FF43C0DAFFDE2A2D
:10144400000EDD22D00E466EFF0E476E42C0D9FF5D
:1014540043C0DAFFDECFF6FFDDCFF7FF000EF86EF4
:101464000800F550486E496A4650482647504922BC
:1014740049500AE10A0E485CD8A043EF0AF046EF4F
:101484000AF0010E47EF0AF0000E546E556A5450EC
:101494005510D8A450EF0AF052EF0AF01DEF0AF0ED
:1014A40042C0D9FF43C0DAFFDECFF6FFDDCFF7FF3E
:1014B400000EF86E0800F550640AD8B464EF0AF020
:1014C40066EF0AF07AEF0AF042C0D9FF43C0DAFFB0
:1014D400DECFF6FFDDCFF7FF000EF86E0800F55003
:1014E400690AD8A478EF0AF07AEF0AF0BAEF0AF0A2
:1014F40042C0D9FF43C0DAFFDE2A000EDD2244C019
:10150400D9FF45C0DAFFDFCF46F0020EDE26DFCF7B
:1015140047F0000EDD2246C0D9FF47C0DAFFDECF18
:101524004AF0DDCF4BF0000E4BBEFF0E4C6E4D6EFD
:101534004E6E4F6E506E516E40C01CF041C01DF097
:101544004AC01EF04BC01FF04CC020F04DC021F02B
:101554004EC022F04FC023F050C024F051C025F0FB
:10156400BAEC0CF01CC040F01DC041F00FEF0BF0C2
:1015740042C0D9FF43C0DAFFDECFF6FFDDCFF7FF6D
:10158400000EF86E0800F550250AD8A4CCEF0AF036
:10159400CEEF0AF0E5EF0AF042C0D9FF43C0DAFF0C
:1015A400DE2A000EDD22000E026E250E016E40C002
:1015B40003F041C004F0F1EC11F0000E416E010E95
:1015C400406E0FEF0BF042C0D9FF43C0DAFFDE2AB2
:1015D400000EDD22000E416E000E406E0FEF0BF088
:1015E40042C0D9FF43C0DAFFDECFF6FFDDCFF7FFFD
:1015F400000EF86E0800F550016E026A40C003F058
:1016040041C004F0F1EC11F042C0D9FF43C0DAFF4D
:10161400DE2A000EDD22DFEF0AF0120022C0D9FF1D
:1016240023C0DAFFDECF12F0DDCF13F024C0D9FFE0
:1016340025C0DAFFDECF14F0DDCF15F026C0D9FFC8
:1016440027C0DAFFDECF16F0DDCF17F028C0D9FFB0
:1016540029C0DAFFDECF18F0DDCF19F0310E1A6E93
:10166400000E1B6E330E1C6E000E1D6E64EC11F02A
:1016740031C001F032C002F033C003F034C004F0D2
:10168400000E066E0C0E056E000E086E000E076E40
:1016940073EC13F001C035F002C036F036BE5EEFD5
:1016A4000BF0365007E11F0E355CD8B05CEF0BF041
:1016B4005EEF0BF06CEF0BF036AE6AEF0BF0E20E60
:1016C400355CFF0E3658D8B06AEF0BF06CEF0BF0B8
:1016D40079EF0CF035C001F036C002F0000E046E54
:1016E4003C0E036E1BEC13F02CC0D9FF2DC0DAFFA7
:1016F40001C0DEFF02C0DDFF35C001F036C002F0DC
:10170400000E046E3C0E036E1BEC13F024C0D9FFD4
:1017140025C0DAFF0150DE260250DD2235C001F07B
:1017240036C002F0000E046E3C0E036E1BEC13F088
:1017340028C0D9FF29C0DAFF0150DE260250DD227D
:101744002CC0D9FF2DC0DAFF010EDBBEAEEF0BF0CB
:10175400ACEF0BF0BDEF0BF02AC0D9FF2BC0DAFFC2
:10176400DE06000EDD5A3C0E2CC0D9FF2DC0DAFF78
:10177400DE26000EDD2224C0D9FF25C0DAFF010ECB
:10178400DBBECFEF0BF0010EDB5009E13C0EDE5C5B
:10179400D8A0CFEF0BF0D1EF0BF0E2EF0BF022C0AB
:1017A400D9FF23C0DAFFDE2A000EDD2224C0D9FFD0
:1017B40025C0DAFFC40EDE26FF0EDD22FDEF0BF09E
:1017C40024C0D9FF25C0DAFF010EDBBEEEEF0BF01B
:1017D400ECEF0BF0FDEF0BF022C0D9FF23C0DAFFD2
:1017E400DE06000EDD5A3C0E24C0D9FF25C0DAFF08
:1017F400DE26000EDD2228C0D9FF29C0DAFF010E43
:10180400DBBE0FEF0CF0010EDB5009E13C0EDE5C99
:10181400D8A00FEF0CF011EF0CF022EF0CF026C063
:10182400D9FF27C0DAFFDE2A000EDD2228C0D9FF47
:1018340029C0DAFFC40EDE26FF0EDD223DEF0CF0D8
:1018440028C0D9FF29C0DAFF010EDBBE2EEF0CF051
:101854002CEF0CF03DEF0CF026C0D9FF27C0DAFFC7
:10186400DE06000EDD5A3C0E28C0D9FF29C0DAFF7F
:10187400DE26000EDD2235C00AF036C00BF0000E65
:101884000D6E3C0E0C6EB9EC12F00C0E0A26000E16
:101894000B222AC0D9FF2BC0DAFF0AC0DEFF0BC01F
:1018A400DDFF35C00AF036C00BF0000E0D6E3C0EA5
:1018B4000C6EB9EC12F022C0D9FF23C0DAFF0A5033
:1018C400DE260B50DD2235C00AF036C00BF0000EC8
:1018D4000D6E3C0E0C6EB9EC12F026C0D9FF27C079
:1018E400DAFF0A50DE260B50DD22B9EF0CF022C0DD
:1018F400D9FF23C0DAFF010EDBBE8BEF0CF0010E23
:10190400DB5009E10D0EDE5CD8A08BEF0CF08DEFFF
:101914000CF0B9EF0CF026C0D9FF27C0DAFF010E96
:10192400DBBEA1EF0CF0010EDB5007E10C0EDE5C18
:10193400D8B09FEF0CF0A1EF0CF0B9EF0CF02AC077
:10194400D9FF2BC0DAFF000EDE6E000EDD6E22C062
:10195400D9FF23C0DAFFF40EDE26FF0EDD220C0EC3
:1019640026C0D9FF27C0DAFFDE26000EDD221200D2
:101974001EC036F01FC037F020C038F021C039F047
:1019840022C03AF023C03BF024C03CF025C03DF017
:101994003DBECFEF0CF0D2EF0CF0010ED3EF0CF004
:1019A400000E346E356A34503510D8B4DCEF0CF0C8
:1019B400DEEF0CF0EEEF0CF03D1E3C1E3B1E3A1E1B
:1019C400391E381E371E366C000E37223822392253
:1019D4003A223B223C223D220001C2BFF4EF0CF02C
:1019E400F6EF0CF0F7EF0CF0C393C2BF04EF0DF069
:1019F400C25106E1C105D8B002EF0DF004EF0DF0BD
:101A04000AEF0DF0000E316E010E306E0EEF0DF088
:101A1400C1C030F0C2C031F0BFC032F0C0C033F03A
:101A240034503510D8A419EF0DF01BEF0DF022EF50
:101A34000DF0C3A520EF0DF022EF0DF025EF0DF012
:101A44003206D8A03306000E3F6E1F0E3E6E000E07
:101A5400E66FA9EF0DF03E06D8A03F06C70E3E2460
:101A6400D96E000E3F20DA6E36C001F037C002F0A6
:101A740038C003F039C004F03AC005F03BC006F0AA
:101A84003CC007F03DC008F00A0E096E000E0A6E55
:101A9400000E0B6E000E0C6E000E0D6E000E0E6E20
:101AA400000E0F6E000E106EB2EC10F001C026F0A6
:101AB40002C027F003C028F004C029F005C02AF0B2
:101AC40006C02BF007C02CF008C02DF026C013F080
:101AD40028C014F06CEC16F01350300FDF6E300693
:101AE400D8A031063206D8A0330636C001F037C07C
:101AF40002F038C003F039C004F03AC005F03BC02E
:101B040006F03CC007F03DC008F00A0E096E000E56
:101B14000A6E000E0B6E000E0C6E000E0D6E000EA3
:101B24000E6E000E0F6E000E106EEEEC0FF001C084
:101B340036F002C037F003C038F004C039F005C0F5
:101B44003AF006C03BF007C03CF008C03DF03FBE91
:101B5400B4EF0DF03F5008E13E04D8A0B4EF0DF00F
:101B6400B6EF0DF0E7EF0DF036503710381039109E
:101B74003A103B103C103D10D8A4C3EF0DF0C5EF54
:101B84000DF02DEF0DF031BED2EF0DF0315006E126
:101B94003004D8B0D0EF0DF0D2EF0DF02DEF0DF0F2
:101BA40033BEDDEF0DF0335008E13204D8A0DDEF91
:101BB4000DF0DFEF0DF0E7EF0DF00001C3B3E5EF3B
:101BC4000DF0E7EF0DF02DEF0DF034503510D8A4E3
:101BD400EEEF0DF0F0EF0DF0F8EF0DF00001C3A5FE
:101BE400F6EF0DF0F8EF0DF016EF0EF03E06D8A06C
:101BF4003F0634503510D8A402EF0EF004EF0EF077
:101C04000AEF0EF0000E2F6E2B0E2E6E0EEF0EF05E
:101C1400000E2F6E2D0E2E6EC70E3E24D96E000EB2
:101C24003F20DA6E2EC0DFFF1CC011F01DC012F081
:101C3400C70E3E24136E000E3F20146E32C015F002
:101C440033C016F056EC12F011C01CF012C01DF097
:101C54001200070E0001AC6FE50EAB6F0B0EB86FF0
:101C64000B0EB56F000EBC6F090EBB6F000EBA6F82
:101C7400000EB96F040EAD6F000EAE6F000EB76F9D
:101C8400070EB66F000EB06F000EAF6F000EB46F8C
:101C9400110EB36F000EB26F000EB16F4FEC17F060
:101CA4003FEC17F015EC17F078EC17F0000E00017C
:101CB400C56F72EC14F00001C651D8B464EF0EF095
:101CC40066EF0EF087EF0EF0AB0E0B6E000E0C6E8F
:101CD400B80E0D6E000E0E6EB50E0F6E000E106E69
:101CE400BB0E116E000E126EB90E136E000E146E42
:101CF400AD0E156E000E166EAE0E176E000E186E3B
:101D04001AEC07F0000E0001C66FBBC001F0BCC0A6
:101D140002F0F1EC14F0BBC001F0BCC002F0B9C099
:101D240003F0BAC004F0B6C005F0B7C006F029EC61
:101D340015F00001C551D8B4A2EF0EF0A4EF0EF0D7
:101D4400C3EF0EF0B60E016E000E026EAF0E036E00
:101D5400000E046EB30E056E000E066EB10E076E15
:101D6400000E086EBB0E096E000E0A6EB90E0B6EE5
:101D7400000E0C6EAEC00DF01FEC14F0000E00014E
:101D8400C56F0C0EBB19BC11D8A4CBEF0EF0CDEF70
:101D94000EF0F2EF0EF0B951BA11D8A4D4EF0EF050
:101DA400D6EF0EF0F2EF0EF0B60E226E000E236E9A
:101DB400AF0E246E000E256EB30E266E000E276E37
:101DC400B10E286E000E296EBB0E2A6E000E2B6E0D
:101DD400B90E2C6E000E2D6EAEC02EF010EC0BF072
:101DE400ABC078F0ACC079F0B8C07AF0B5C07BF085
:101DF400BBC07CF0BCC07DF0B9C07EF0BAC07FF03F
:101E0400ADC080F0AEC081F0B6C082F0B7C083F040
:101E1400AFC084F0B0C085F0B3C086F0B4C087F022
:101E2400B1C088F0B2C089F0CAEC13F05DEF0EF0D7
:101E340032EF00F0000E166E000E156E000E0F6EDF
:101E4400000E0E6E28EF0FF0084A092A010E146ED8
:101E540008C0F6FF09C0F7FF000EF86E0800F55041
:101E6400200AD8B438EF0FF03AEF0FF059EF0FF023
:101E7400F70E0A6EFF0E0B6E08C0F6FF09C0F7FFDF
:101E8400000EF86E0800F5500C6E0D6A0A500C2610
:101E94000B500D220D5009E1050E0C5CD8A055EF36
:101EA4000FF057EF0FF059EF0FF0000E146E14C03F
:101EB40010F0116A10501110D8A463EF0FF065EF01
:101EC4000FF026EF0FF06FEF0FF0000E0F6E010E04
:101ED4000E6E084A092AA8EF0FF008C0F6FF09C0E1
:101EE400F7FF000EF86E0800F5500A6E0B6A0B50EF
:101EF400000AD8B480EF0FF0A8EF0FF00A502B0AB5
:101F0400D8B46BEF0FF0060AD8B467EF0FF0A8EF60
:101F14000FF015C001F016C002F0000E046E0A0E98
:101F2400036E2CEC17F008C0F6FF09C0F7FF000E93
:101F3400F86E0800F550015E000E025A300E0124BE
:101F4400156E000E0220166E6BEF0FF0D00E0A6EA7
:101F5400FF0E0B6E08C0F6FF09C0F7FF000EF86E07
:101F64000800F5500C6E0D6A0A500C260B500D2219
:101F74000D500AE10A0E0C5CD8A0C3EF0FF0C6EFB7
:101F84000FF0010EC7EF0FF0000E126E136A12501D
:101F94001310D8A4D0EF0FF0D2EF0FF08BEF0FF0A7
:101FA4000E500F10D8A4D9EF0FF0DBEF0FF0E9EFCC
:101FB4000FF015C00AF016C00BF00A1E0B1E0A4AD9
:101FC4000B2A0AC008F00BC009F0EDEF0FF015C0A2
:101FD40008F016C009F01200000E126E10BEF7EFE2
:101FE4000FF0F5EF0FF009EF10F0101E0F1E0E1E8C
:101FF4000D1E0C1E0B1E0A1E096C000E0A220B225B
:102004000C220D220E220F221022010E126E08BE87
:1020140010EF10F00EEF10F022EF10F0081E071E64
:10202400061E051E041E031E021E016C000E022263
:10203400032204220522062207220822010E121A74
:1020440020EE13F0070EDE6AE806FDE209500A10DE
:102054000B100C100D100E100F101010D8B435EF1B
:1020640010F037EF10F089EF10F0010E116E45EF0C
:1020740010F0D89009360A360B360C360D360E366B
:102084000F361036112A10AE4AEF10F04CEF10F054
:102094003BEF10F0D8901336143615361636173633
:1020A400183619361A360950015C0A5002580B507A
:1020B40003580C5004580D5005580E5006580F5034
:1020C400075810500858D8A06AEF10F06CEF10F0C1
:1020D4007DEF10F00950015E0A50025A0B50035A6A
:1020E4000C50045A0D50055A0E50065A0F50075AF8
:1020F4001050085A1380D89010320F320E320D321D
:102104000C320B320A320932112E4CEF10F01250FD
:10211400D8B48FEF10F091EF10F0A1EF10F01A1E69
:10212400191E181E171E161E151E141E136C000EE3
:102134001422152216221722182219221A2213C039
:1021440001F014C002F015C003F016C004F017C06B
:1021540005F018C006F019C007F01AC008F0120004
:10216400000E126E08BEBBEF10F0B9EF10F0CDEF09
:1021740010F0081E071E061E051E041E031E021E66
:10218400016C000E022203220422052206220722E9
:102194000822010E126E10BED4EF10F0D2EF10F030
:1021A400E4EF10F0101E0F1E0E1E0D1E0C1E0B1E53
:1021B4000A1E096C000E0A220B220C220D220E228A
:1021C4000F22102209500A100B100C100D100E10C3
:1021D4000F101010D8B4F1EF10F0F3EF10F03BEF44
:1021E40011F0010E116E01EF11F0D89009360A3684
:1021F4000B360C360D360E360F361036112A10AE4D
:1022040006EF11F008EF11F0F7EF10F00950015C40
:102214000A5002580B5003580C5004580D500558DE
:102224000E5006580F50075810500858D8A01DEFEC
:1022340011F01FEF11F02FEF11F00950015E0A5059
:10224400025A0B50035A0C50045A0D50055A0E50A2
:10225400065A0F50075A1050085AD89010320F32AD
:102264000E320D320C320B320A320932112E08EFC3
:1022740011F01250D8B441EF11F043EF11F053EFC5
:1022840011F0081E071E061E051E041E031E021E54
:10229400016C000E022203220422052206220722D8
:1022A400082201C001F002C002F003C003F004C020
:1022B40004F005C005F006C006F007C007F008C02A
:1022C40008F0120018C007F019C008F016C005F095
:1022D40017C006F014C003F015C004F012C001F0DA
:1022E40013C002F073EC13F001C00AF002C00BF04B
:1022F400000E0D6E020E0C6EB9EC12F00AC020F046
:102304000BC021F020C00AF021C00BF0000E0D6EAE
:102314003C0E0C6EB9EC12F012500A2613500B222C
:102324001AC0D9FF1BC0DAFF0AC0DEFF0BC0DDFFF5
:1023340020C001F021C002F0000E046E3C0E036EBA
:102344001BEC13F014500126155002221CC0D9FFB7
:102354001DC0DAFF01C0DEFF02C0DDFF1CC0D9FFD3
:102364001DC0DAFF010EDBBEC2EF11F0010EDB501F
:1023740009E13C0EDE5CD8A0C2EF11F0C4EF11F00D
:10238400D5EF11F01AC0D9FF1BC0DAFFDE2A000E08
:10239400DD221CC0D9FF1DC0DAFFC40EDE26FF0EED
:1023A400DD22F0EF11F01CC0D9FF1DC0DAFF010ED1
:1023B400DBBEE1EF11F0DFEF11F0F0EF11F01AC026
:1023C400D9FF1BC0DAFFDE06000EDD5A3C0E1CC02E
:1023D400D9FF1DC0DAFFDE26000EDD2212000350F5
:1023E4000410D8B4F8EF11F0FAEF11F003EF12F083
:1023F40003500410D8A401EF12F003EF12F008EF19
:1024040012F001507EEC17F055EF12F020EE04F0BC
:102414000350D9260450DA22DE50DE10D8B415EF6A
:1024240012F017EF12F032EF12F020EE04F0035026
:10243400D9260450DA2210EE02F00350E1260450AB
:10244400E222DE50E65CE650800A096EDE50800A25
:102454000958D8B030EF12F032EF12F055EF12F005
:1024640020EE02F00350D9260450DA22DECF05F024
:10247400DDCF06F003C0D9FF04C0DAFFDECF07F0DA
:10248400DDCF08F005500724D96E06500820DA6E17
:1024940001C0DFFF20EE02F00350D9260450DA22F7
:1024A400DE2A000EDD2212000001C3A15CEF12F04F
:1024B4005EEF12F068EF12F013C00AF014C00BF0D4
:1024C40011C00CF012C00DF04AEC16F016BE6DEF00
:1024D40012F06FEF12F075EF12F015C01AF016C07B
:1024E4001BF079EF12F0000E1B6E000E1A6E000E38
:1024F400196E000E186E8BEF12F0000E026E200E95
:10250400016E11C003F012C004F0F1EC11F0184A8E
:10251400192A1A50185C1950800A176E1B50800A29
:102524001758D8A098EF12F09AEF12F07FEF12F03C
:102534000001C3B1A0EF12F0A2EF12F0ACEF12F061
:1025440013C00AF014C00BF011C00CF012C00DF04F
:102554004AEC16F013C001F014C002F0C5EC16F0FA
:102564001A500124116E1B500220126E1200000E2C
:102574000F6E0DBEC2EF12F0C0EF12F0C8EF12F0F2
:102584000C6C0D1ED8B00D2A010E0F6E0BBECFEFD2
:1025940012F0CDEF12F0D5EF12F00A6C0B1ED8B08A
:1025A4000B2A010E0F1A000E116E000E106E0C5045
:1025B4000D10D8B4E0EF12F0E2EF12F00AEF13F0CE
:1025C400010E0E6EEAEF12F0D8900C360D360E2A7C
:1025D4000DAEEFEF12F0F1EF12F0E6EF12F0D8903B
:1025E400103611360C500A5C0D500B58D8A0FDEF74
:1025F40012F0FFEF12F004EF13F00C500A5E0D50CE
:102604000B5A1080D8900D320C320E2EF1EF12F0CE
:102614000F50D8B410EF13F012EF13F016EF13F0BD
:10262400106C111ED8B0112A10C00AF011C00BF0A2
:102634001200000E066E02BE24EF13F022EF13F018
:102644002AEF13F0016C021ED8B0022A010E066EA6
:1026540004BE31EF13F02FEF13F035EF13F0036CDA
:10266400041ED8B0042A03500410D8B43CEF13F06D
:102674003EEF13F062EF13F0010E056E46EF13F018
:10268400D89003360436052A04AE4BEF13F04DEF11
:1026940013F042EF13F00350015C04500258D8A029
:1026A40056EF13F058EF13F05CEF13F00350015E94
:1026B4000450025AD89004320332052E4DEF13F021
:1026C4000650D8B468EF13F06AEF13F06EEF13F00E
:1026D400016C021ED8B0022A01C001F002C002F04F
:1026E40012000550015C0250800A096E0650800AEF
:1026F4000958D8B080EF13F082EF13F09CEF13F079
:102704008BEF13F00506D8A006063C0E0726000E34
:1027140008220550015C0250800A096E0650800AA6
:102724000958D8A098EF13F09AEF13F084EF13F040
:10273400C3EF13F00150055C0650800A096E025085
:10274400800A0958D8B0A9EF13F0ABEF13F0C3EF28
:1027540013F0B4EF13F00106D8A002063C0E0326D2
:10276400000E04220150055C0650800A096E0250D6
:10277400800A0958D8A0C1EF13F0C3EF13F0ADEFEE
:1027840013F00350075C016E04500858026E1200E7
:1027940078C0A9F079C0AAF08A0E0001606F000E1B
:1027A400616F1B0E626F0E0E636F7BC064F0656B0E
:1027B4007AC066F0676BA9C068F0AAC069F07CC0F3
:1027C4006AF07DC06BF07EC06CF07FC06DF0F8ECF9
:1027D40015F0010E8CEC16F08A0E046E000E056ED8
:1027E400FBEC16F09A0E0001606F000E616F010E93
:1027F400626F0E0E636F82C064F083C065F084C0A4
:1028040066F085C067F086C068F087C069F088C04C
:102814006AF089C06BF080C06CF06D6B81C06EF0A3
:102824006F6BF8EC15F0020E8CEC16F09A0E046E39
:10283400000E056EFBEC16F012000001C505D8A4CD
:1028440026EF14F028EF14F048EF14F00D5009C0EF
:10285400D9FF0AC0DAFFDECF0EF0DDCF0FF00E5E37
:10286400000E0F5A01C0D9FF02C0DAFF0EC0DEFF0E
:102874000FC0DDFF0BC0D9FF0CC0DAFF03C0E1FFBE
:1028840004C0E2FFDECFE6FFDDCFE5FF020EC5198F
:10289400D8A44FEF14F051EF14F071EF14F00D5071
:1028A40009C0D9FF0AC0DAFFDECF0EF0DDCF0FF08A
:1028B4000E5E000E0F5A05C0D9FF06C0DAFF0EC027
:1028C400DEFF0FC0DDFF0BC0D9FF0CC0DAFF07C06D
:1028D400E1FF08C0E2FFDECFE6FFDDCFE5FF120037
:1028E400839C839482968294859685927B9C7B9428
:1028F4007A967A947D967D92030E5FEC15F0A00E85
:1029040000D0E82EFDD7000E026E280EE0EC16F083
:10291400A00E00D0E82EFDD7000E026E280EE0ECCB
:1029240016F0A00E00D0E82EFDD7000E026E0C0E9D
:10293400E0EC16F0A00E00D0E82EFDD7000E026EDB
:10294400010EE0EC16F0220E046E3E0EE82EFED7C9
:10295400042EFCD7000E026E060EE0EC16F01200F8
:10296400030E0614086E000E0714096E08500910B1
:10297400D8A4BFEF14F0C1EF14F0D8EF14F006C0E0
:1029840001F007C002F0000E046E640E036EC6EC84
:1029940015F001500210D8B4D2EF14F0D4EF14F0B3
:1029A400D8EF14F0010E0A6EEFEF14F006C001F038
:1029B40007C002F0010E046E900E036EC6EC15F013
:1029C40001500210D8A4E9EF14F0EBEF14F0EDEF8E
:1029D40014F0D4EF14F0000E0A6E0A50120001A095
:1029E400F6EF14F0F8EF14F0FBEF14F07F80FCEF37
:1029F40014F07F9001A201EF15F003EF15F006EF3C
:102A040015F07F8207EF15F07F9201A40CEF15F00B
:102A14000EEF15F011EF15F0798412EF15F079949B
:102A240001A617EF15F019EF15F01CEF15F07E8CC9
:102A34001DEF15F07E9C01A822EF15F024EF15F090
:102A440027EF15F0798828EF15F07998120002BE67
:102A540034EF15F0025008E10104D8A034EF15F06A
:102A640036EF15F045EF15F002BE44EF15F00250B5
:102A740007E1050E015CD8B042EF15F044EF15F004
:102A840045EF15F08096050E01180210D8A44DEFFD
:102A940015F04FEF15F05EEF15F003500410D8A4B5
:102AA40056EF15F058EF15F05EEF15F00E01D0ADAE
:102AB40002D0808601D080961200016E01A065EFDD
:102AC40015F067EF15F06AEF15F07A866BEF15F0E5
:102AD4007A9601A270EF15F072EF15F075EF15F00C
:102AE4007A8476EF15F07A9401A47BEF15F07DEFEC
:102AF40015F080EF15F07D8681EF15F07D9601A627
:102B040086EF15F088EF15F08BEF15F07D828CEFD2
:102B140015F07D9271EC17F01A0EE82EFED700D056
:102B2400120058C05CF059C05DF0000E0001BE6F89
:102B3400000EBD6FB1EF15F056C040F057C041F024
:102B44005C0E426E000E436E5AC044F05BC045F00A
:102B540045EC09F040500001BD274150BE235CC044
:102B6400F6FF5DC0F7FF000EF86E0800F55000098F
:102B7400D8A4BFEF15F0C1EF15F09EEF15F0BDC05E
:102B840056F0BEC057F0120003500410D8B4CDEF75
:102B940015F0CFEF15F0F3EF15F0010E056ED7EF3A
:102BA40015F0D89003360436052A04AEDCEF15F090
:102BB400DEEF15F0D3EF15F00350015C045002581A
:102BC400D8A0E7EF15F0E9EF15F0EDEF15F003509D
:102BD400015E0450025AD89004320332052EDEEF0F
:102BE40015F001C001F002C002F01200640E0001F1
:102BF400706F000E716F60C072F061C073F0000EF0
:102C0400756F000E746F000E776F000E766F720E84
:102C1400566E000E576E62C058F063C059F0700EC5
:102C24005A6E000E5B6E93EC15F000017451602532
:102C3400D96E75516121DA6E000EDF6E1200010E3D
:102C4400076E200E01180210D8B42BEF16F02DEFEA
:102C540016F046EF16F0F70E036EFF0E046E01C079
:102C640005F002C006F00350052604500622065063
:102C740009E1050E055CD8A042EF16F044EF16F00A
:102C840046EF16F0000E076E07C001F0026A12004C
:102C9400000E106E000E0F6E5BEF16F00EC001F00A
:102CA400026A0CC003F00DC004F0F1EC11F00F4AFD
:102CB400102A0F500A24D96E10500B20DA6EDF5000
:102CC4000E6E0E50D8A469EF16F06BEF16F050EFAD
:102CD40016F0120014BE79EF16F0145006E1130436
:102CE400D8B077EF16F079EF16F087EF16F013C02F
:102CF40015F014C016F0151E161E154A162A15C016
:102D040013F016C014F08BEF16F013C013F014C0B8
:102D140014F01200046E0404D8A493EF16F095EF97
:102D240016F09AEF16F0000E026E800EE0EC16F02C
:102D3400020E0418D8A4A1EF16F0A3EF16F0A8EF22
:102D440016F0000E026EC00EE0EC16F01200D00E6B
:102D5400036EFF0E046E01C005F002C006F00350BE
:102D640005260450062206500AE10A0E055CD8A086
:102D7400BEEF16F0C1EF16F0010EC2EF16F0000E12
:102D8400016E026A120001C003F002C004F0CDEF2C
:102D940016F0014A022A01C0D9FF02C0DAFFDF504F
:102DA400D8A4D7EF16F0D9EF16F0CBEF16F00350F6
:102DB400015C016E04500258026E1200036E025050
:102DC400D8B4E7EF16F0E9EF16F0ECEF16F07B8CD1
:102DD400EDEF16F07B9C03380F0B0F0B5FEC15F037
:102DE40003500F0B5FEC15F0A00E00D0E82EFDD7BA
:102DF400120008EF17F0010E026E04C0D9FF05C0DF
:102E0400DAFFDF50E0EC16F0044A052A04C0D9FFCB
:102E140005C0DAFFDF50D8A412EF17F014EF17F053
:102E2400FDEF16F01200868E0E01D251F80B030945
:102E3400D26FD351F80B0509D36FD083D089D183D6
:102E4400D18167EC17F00E01D08F350EE82EFED736
:102E540000F0120001500302F3CF05F0F4CF06F0A6
:102E640001500402F350062602500302F3500626D2
:102E740005C001F006C002F01200D6501F0B400935
:102E8400D66ED688D650F00B0209D66ED5881B0EA6
:102E9400D46E1D0ED36ED58E12007F907F927994DE
:102EA4007E9C79988096879087928194869C81985D
:102EB4008896120000EEBDF02A0EEE6AE806FDE1E7
:102EC4005E905E9200012BEF0EF0F30E0E01C6171A
:102ED400C691C751E00B0F09C76FC68F12007B84E0
:102EE4000A0EE82EFED700D07B9412000E01298B27
:0A2EF4002B81F28CF28E1200120006
:020000040020DA
:10000000FF0FFF0FFF0FFF0FFF0FFF0FFF0FFF0F80
:020000040030CA
:0C000000AAFFFFFF9FFFFFFFFFFFFFFFB5
:00000001FF
